:1000000000800020BD010000D18800008988000028
:10001000898800008988000089880000898800009C
:10002000898800008988000089880000D188000044
:10003000D1880000898800009D7F0000A180000019
:10004000D1880000D1880000D1880000D18800004C
:10005000D1880000D1880000D1880000D18800003C
:10006000D1880000D1880000D1880000D18800002C
:10007000D1880000D1880000D1880000D18800001C
:10008000D1880000D1880000D1880000D18800000C
:10009000D1880000D1880000D1880000D1880000FC
:1000A0005D7A0000697A0000D1880000D1880000E4
:1000B000D1880000D1880000D1880000D1880000DC
:1000C000D1880000D1880000D1880000D1880000CC
:1000D000D1880000D1880000D1880000D1880000BC
:1000E000D1880000D1880000D1880000D1880000AC
:1000F000D18800005D940000D188000089A900002B
:10010000D188000005970000D1880000D188000048
:10011000D1880000D1880000D1880000D18800007B
:10012000D1880000D1880000D1880000D18800006B
:10013000D1880000D1880000D1880000D18800005B
:10014000D1880000D1880000D1880000D18800004B
:10015000798200008D820000A1820000B58200003B
:10016000D188000091990000D1880000D18800005A
:10017000D1880000D1880000D1880000D18800001B
:10018000D1880000D1880000D1880000D18800000B
:10019000D1880000D1880000D1880000D1880000FB
:1001A000D1880000D1880000D1880000D1880000EB
:1001B000D1880000D1880000597D0000564B4CF2D8
:1001C000205210B51A804DF628121A8000BF00BFC9
:1001D00008F082FB514B4FF010621A60504A9A604F
:1001E000504ADA60504A136813F4807304D14F49BF
:1001F0000B604FF4A85313604D4B1A78110703D5C9
:100200001A7842F008021A704A4B4B492A221A7097
:100210004A4A4B4B8B4204D252F8040F43F8040B6A
:10022000F8E7484B484900228B4202D243F8042B9E
:10023000FAE74649464A002352F8230041F82300D2
:1002400001336F2BF8D1434B434A802103F8011B44
:100250009342FBD1414B3D4A1A60414B8A221A70AE
:10026000A3F5805324225A70A0221A709A7992071B
:10027000FCD59A79D406FCD43A4A937903F00C035E
:10028000082B384BF9D103221A7140225A719A79FE
:100290009006FCD5334A9179324B4906FBD5324A58
:1002A000324911600221516020221A709A7902F0BD
:1002B0000C020C2AFAD12E4B2E4A1A602E4B2F4AD2
:1002C0001A6000225A60072243F8042C2C4AC3F813
:1002D0000C2D62B608F024FD144B1B68DA0705D517
:1002E000284808F07DFC284B284A1A60284B1B78C8
:1002F0005B0609D5244C254B22689A4204D121483B
:1003000008F06EFC002323600BF016FD08F0EAFAFB
:1003100008F018FAFEE700BF0E20054030800440C8
:10032000823F04000100002B10D0034014D0034092
:1003300002D0074000E00740C8AEFF1F5C69020022
:100340002095FF1FC8AEFF1F2CBBFF1F0090FF1F93
:100350000000000000E400E05FE400E008ED00E0E1
:100360000050064000400640448004400000030165
:1003700004800440C010050014E000E0FF76010096
:10038000000020203BC0885C1CE00340A5C3945AB9
:1003900000F00740FFFFFFFFFFFFFFFFFFFFFFFF32
:1003A000FFFFFFFFFFFFFFFFFFFFFFFFFFFFFFFF5D
:1003B000FFFFFFFFFFFFFFFFFFFFFFFFFFFFFFFF4D
:1003C000FFFFFFFFFFFFFFFFFFFFFFFFFFFFFFFF3D
:1003D000FFFFFFFFFFFFFFFFFFFFFFFFFFFFFFFF2D
:1003E000FFFFFFFFFFFFFFFFFFFFFFFFFFFFFFFF1D
:1003F000FFFFFFFFFFFFFFFFFFFFFFFFFFFFFFFF0D
:10040000FFFFFFFFFFFFFFFFFFFFFFFFDEF9FFFF23
:1004100010B5054C237833B9044B13B10448AFF33E
:1004200000800123237010BDC8AEFF1F0000000034
:1004300058690200084B10B51BB108490848AFF3D2
:1004400000800848036803B910BD074B002BFBD0A0
:10045000BDE81040184700BF00000000CCAEFF1FF1
:1004600058690200C8AEFF1F00000000014B0122C6
:100470001A707047D1B4FF1F10B5044607F024FC72
:10048000204610BD70B4084A084B16785578947809
:100490005E70D2789D7004261E70DC701A7104495B
:1004A000044870BC05F0CEBF10B4FF1FA0B4FF1FFE
:1004B000D8B0FF1FA0AFFF1F70B505460E4614460B
:1004C00009F0FEF8A8BB09F0FBF870BB09F0F8F8DA
:1004D00038BB09F0F5F800BB09F0F2F8C8B909F02B
:1004E000EFF890B909F0ECF840B909F0E9F800B973
:1004F00070BDEF20BDE8704009F0D8B8301928442D
:10050000C043C0B209F0D2F8EFE7FF2009F0CEF8FF
:10051000E8E7204609F0CAF8E1E7304609F0C6F8F6
:10052000DAE7012009F0C2F8D3E7284609F0BEF85F
:10053000CCE77E2009F0BAF8C5E700BF002310B46D
:10054000104C4172026104600372C36041B11946EC
:1005500000E0026942F82310427A01339A42F8DC43
:10056000094B1A680AB90BE01A465369002BFBD1F4
:100570005061002343618380C380837210BC704745
:100580001860F6E7C4560200F8B7FF1F70B5174DA4
:10059000174C2B7823222270F3B9164B1B78012BB2
:1005A00002D02323237070BD134B1E78012EF8D187
:1005B0002B780E4D022BF4D14FF4FA7008F062FB49
:1005C0002B78002BEDD00D4B1A786B3A3146D2B216
:1005D0000F20FFF771FFE4E7094B1A78393AD2B2DE
:1005E00001210F20FFF768FFD7E700BF0296FF1F2A
:1005F00024B0FF1F21B4FF1F50AFFF1F6C9BFF1FD4
:100600002296FF1F08B5224B1B78013B052B08D80B
:10061000DFE803F01010383303031E491E4806F0CC
:1006200031FB1E4B197801290CD01D4B1B78012B77
:1006300012D008BD1B49184806F024FB174B197847
:100640000129F2D1172008F0DDFA174B23221A7086
:10065000134B1B78012BECD1144B19780129E8D1ED
:10066000134B1B78022BE4D1124B1A786B3AD2B29F
:100670000F20BDE80840FFF71FBF0F49064806F0EE
:1006800001FBCEE70D49044806F0FCFAC9E700BFBC
:100690002296FF1F3811020030B1FF1F0796FF1F7F
:1006A00021B4FF1FACFC000014AFFF1F50AFFF1FB1
:1006B0000296FF1F6C9BFF1FB494010030310100B4
:1006C00070B5284C28482278062105F0C3FB274B3B
:1006D00020781B78002B3ED10AF068FF4FF07C5148
:1006E0000AF0B8FF22490BF069F8224905460BF0E1
:1006F0006DF970BB204928460BF04AF900B31F4A38
:100700001F4B64209A6108F0BDFAFFF77BFF237846
:100710001C4A1D491D4803EB830303EB83039B0025
:1007200082FB03421A44DB17C3EB22120CF0BAF827
:10073000164B174805224621BDE8704005F08AB8DF
:100740004FF08F4128460AF085FF0BF049F9024629
:10075000D6E7104AD4E7024600210620FFF7ACFE98
:100760002078B9E76D9BFF1FFCB4FF1F0296FF1FA7
:100770000000F04100FEFF4600FEFFC600000180C1
:1007800030B4FF1F89888888C8560200B8B2FF1F9E
:1007900094AFFF1F0000FF7F2DE9F84300210125E2
:1007A000DFF8D0802A48DFF8D09088F800500C4657
:1007B0002A4605F04FFB29462246254889F8004085
:1007C00005F048FB234B22481D702A46022105F004
:1007D00041FB214B1E481D702A46092105F03AFBBA
:1007E0001E4B1B481C702246632105F033FB1C4B3B
:1007F00017481C4F1E2206211A7005F02BFB1A4BBE
:1008000013481D702A46082105F024FB174B104899
:100810001C702246072105F01DFB154B0C481D706E
:100820002A46622105F016FB25460A2400262146A9
:100830003246074807F8015B013405F00BFB102C2A
:10084000F4D1012389F8006088F80030BDE8F8830E
:10085000FCB4FF1F50AFFF1F6C9BFF1F0296FF1FD2
:100860006D9BFF1F7CAFFF1F0796FF1FB2B3FF1FDB
:100870002296FF1F7A9DFF1F21B4FF1F70B50D4CFC
:100880000D4B84B0012500224026802120468DE8B2
:1008900042000295114605F021F820462A46074BF2
:1008A000052104F0D7FF204604B0BDE8704005F0F4
:1008B0007BB900BF94AFFF1F3C96FF1FD4560200C8
:1008C000184B1B78013B052B0AD8DFE803F00A110F
:1008D00018212803144A154B92E8030083E803000B
:1008E0007047134A114B92E8030018601971704762
:1008F000104A0E4B92E803001860998070470E4A28
:100900000A4B92E803000A0C186099809A717047AC
:100910000A4A064B92E8030083E803007047084A3E
:10092000EEE700BF6C9BFF1F0C570200BCB4FF1F1B
:10093000E4560200EC560200F4560200FC56020097
:100940000457020008B5484B1A78012A0AD0022A37
:1009500013D1464B1B78052B0FD8DFE803F0383F47
:10096000464D5431424B1B78022B1BD0032B09D12F
:10097000404B41483F2104F06DFF3F48BDE808402F
:1009800005F012B9012BF8D11A463B483B4B3F21E9
:1009900004F060FF354B1B78032BEED8DFE803F043
:1009A00048413A4F364B34483F2104F053FF2F4B18
:1009B0001B78042BE1D8DFE803F03B34502D4900CD
:1009C000304B2D480622032104F044FFD5E72E4B7F
:1009D00029480622032104F03DFFCEE72B4B264891
:1009E0000622032104F036FFC7E7294B22480622DE
:1009F000032104F02FFFC0E7264B1F4806220321E6
:100A000004F028FFB9E7244B1B480622032104F019
:100A100021FFB2E7214B184805223F2104F01AFFBD
:100A2000ABE71F4B144805223F2104F013FFA4E756
:100A3000154B114805223F2104F00CFF9DE7164B92
:100A40000D4805223F2104F005FF96E7154B0A48A3
:100A500005223F2104F0FEFE8FE7134B06480522D6
:100A60003F2104F0F7FE88E721B4FF1F58B1FF1FB4
:100A700050AFFF1F7057020094AFFF1F14570200C2
:100A80004C570200A0570200205702007C5702007A
:100A90008857020094570200405702003457020062
:100AA0002857020064570200585702002DE9F04F02
:100AB000C14DC2482E688BB0052200241027114674
:100AC00038230194009704F081FFBD4B1978022967
:100AD00000F0B480012974D0BA4E2546B24637469C
:100AE00033464FF001094FF010084FF00C0B052270
:100AF0001146B248CDF80890CDF80480CDF800B08A
:100B000004F0ECFE3B4605221221AC48CDF80890DB
:100B1000CDF80480CDF800B004F0E0FE03238DE8AA
:100B20000803A648A84B05221F2104F0D7FE534610
:100B300005222321A148CDF80890CDF80480CDF8F6
:100B400000B004F0CBFECDF80890CDF80480CDF8CD
:100B500000B0334605223021984804F0BFFE974884
:100B600005F022F8964B1B78012B00F09280022BA7
:100B700024D1964B1B78013B022B1FD8642303FB27
:100B80000545092D40F3D980914AE31782FB040102
:100B9000C3EB610303EB83039C420FD18D4B1B78A6
:100BA00063B18D4B1B784BB982FB0532ED17C5EB5A
:100BB0006202D2B202210F20FFF77EFC0BB0BDE82B
:100BC000F08F864B1878022800F0E881DFF8109249
:100BD000DFF81082D9F8006088FB06353544F2173B
:100BE000C2EB6515A5EB0514032806EB840400F0A1
:100BF0000581774A734982FB043A82FB0530EB1783
:100C0000E217C2EBAA02C3EBA00303EB830702EBDC
:100C10008206A5EB4707A4EB460607EB470703EB65
:100C2000430306EB460602EB420201EBC70701EB6A
:100C3000C30301EBC60601EBC20A52E7634B1A7805
:100C4000032A5FD8664B674D186885FB0035291865
:100C5000C517C5EB6115A5EB051400EB8404052A47
:100C6000C7D15B49604D614C81FB0632F617C6EB7C
:100C7000A20202EB8202520085FB0203D517C5EBEC
:100C8000A31504FB052281FB0234D217C2EBA40496
:100C9000AFE7524E3178012900F0948102295CD0EF
:100CA00003298BD1494B1978022987D14C4B4D4DE3
:100CB0001A6885FB0235AB18D517C5EB6315A5EB94
:100CC000051402EB8404002D40F0F681002C00F0A6
:100CD0005D82092C40F346823D48E21780FB0430D8
:100CE000C2EB600202EB82039C4240F03B82394B34
:100CF0001B7823B1384B1B78002B00F02F82304B30
:100D00001B7834E7042A40F08E81394B39491A6840
:100D10000792079A1B6806930968334D069B364C69
:100D2000521AA5FB0225AD095A1A4FF47A7303FB38
:100D30001523A4FB0334E4085BE7264B1B78002B48
:100D40003FF43CAF244B1B78002B7FF437AFE2B26B
:100D500003210F20FFF7B0FB30E71C4B1B78023B51
:100D6000012B3FF62BAF642202FB0542092A40F318
:100D7000BC811748E31780FB0470C3EB600303EBEF
:100D800083039C427FF41AAF124B1B78002B3FF475
:100D900015AF114B1B78002B7FF410AF05230F20EC
:100DA00092FBF3F2D2B2FFF787FB054B1B78012BC6
:100DB0007FF4DDAE317873E7B8B4FF1F94AFFF1F47
:100DC00021B4FF1F409AFF1F309BFF1F58B1FF1F28
:100DD000676666660296FF1F24B0FF1F50AFFF1FB5
:100DE000E4AEFF1F89888888D34D621018FCFFFF8E
:100DF00050B8FF1F5CB1FF1FCDCCCCCCC44B002E34
:100E00001B680593C0F21181C24B029183FB06134C
:100E1000C2EBA312DFF83CA3019702EB42030C21C3
:100E2000052200910AEBC3031146BB4804F056FDAE
:100E3000DFF81CB3B848DFF820938BFB0532EB17C3
:100E4000C3EBA20303EB8303A5EB43054FF00108BB
:100E50000C2705EB450310220AEBC3030192CDF8E2
:100E6000088000970522122104F038FD0323102288
:100E700001920093CDF80880A84BA74805221F21B6
:100E800004F02CFD8BFB0435E317C3EBA50505EB44
:100E90004503102205EB850501920AEBC303A4EB81
:100EA0004504CDF808800097052223219A489C4DDF
:100EB00004F014FD04EB440310220AEBC303019277
:100EC0000024CDF80880009705223021924804F0D4
:100ED00005FD0194009726231D2214218E4804F05D
:100EE00075FD21468F4B8C48042204F0B3FC059A13
:100EF000884BCDF80880941B85FB042583FB0413E5
:100F0000E2172544C2EB65150826C2EBA313A5EB37
:100F1000051E09EB0313019700961D2214217E483C
:100F200004EB8E0404F0DAFC8BFB0532EB17C3EB09
:100F3000A20303EB83031D22A5EB430309EB031379
:100F400011468DE8C001744804F0C8FC022209F182
:100F5000A0030092CDF8088001971D2226216E483B
:100F600004F0BCFC8BFB043BE317C3EBAB0B09EBBE
:100F70000B138DE8C0011D22292167480BEB8B0B59
:100F800004F0ACFCA4EB4B0309EB03138DE8C001A8
:100F90001D223221604804F0A1FCE0E5624B1B7881
:100FA000042B5DD0052B66D0604B5D4D1A6885FB28
:100FB0000235AB18D517C5EB6315A5EB051402EB8D
:100FC000840416E6584B1B78022B7FF6F7AD64229B
:100FD00002FB0542092A5FDD01F16631E31781FB5F
:100FE0000470C3EB600303EB83039C427FF4E6AD24
:100FF0004F4B1B78002B3FF4E1AD4E4B1B78002B81
:101000007FF4DCAD81FB0231D217C2EB6102D2B2B8
:1010100002210F20FFF750FA474B1B78012B7FF47A
:10102000A6AD31783AE6254619E605220C200823BC
:101030000291019000931146404B3748DFF814A10C
:1010400004F04CFCD9F800305D4288FB0528A84428
:10105000ED17C5EB6815A5EB0514C3EB8404E7E6B3
:10106000374B38491A680992099A1B68089309682E
:10107000354D089B53E62A68334D344B344C85FB81
:101080000201D517C5EBA11503FB052384FB03243F
:10109000DB17C3EBA404ACE5254B1B78002B3FF416
:1010A0008DAD244B1B78002B7FF488ADE2B2032179
:1010B0000F20FFF701FAAFE76B1E082B69D8002C51
:1010C0007FF41DAE1A4B1B78002B3FF418AE194B62
:1010D0001B78002B7FF413AE05EB8502920002F023
:1010E000FC020F20FFF7E8F909E6114B1B78002BF3
:1010F0003FF464AD0F4B1B78002B7FF45FADE2B281
:1011000003210F20FFF7D8F90B4B1B784FE600BFE8
:1011100024B4FF1FB5814E1B94AFFF1F309BFF1FF0
:1011200089888888AC57020058B1FF1FE4AEFF1FC2
:101130000296FF1F24B0FF1F21B4FF1F349EFF1F24
:1011400050B8FF1F5CB1FF1FD34D621018FCFFFFAA
:1011500067666666409AFF1F7C9DFF1FD2B20F2014
:10116000FFF7AAF9631E082B3FF6C9AD0C4B1B789D
:10117000002B3FF4C4AD0B4B1B78002B7FF4BFADAD
:10118000E2B203210F20FFF797F9B8E5FFF73AFA2B
:10119000B5E5054B1B78022B7FF410ADEEE400BFE4
:1011A0000296FF1F24B0FF1F21B4FF1F2DE9F04757
:1011B000994C2378022B00F08180012B01D0BDE8EF
:1011C000F087964D2B78022BF9D1954B1B78052B88
:1011D00040F0E980934B94481A68944980FB02637D
:1011E000D217C2EBA30303EB83035B0081FB031263
:1011F0004FEAE379C9EBA219B9F1130F40F3F0807C
:1012000080FB09204FEAE978C8EBA00808EB8808C2
:10121000A9EB4808C8EB090985488349854F09EBC4
:10122000080200FB023381FB0302D817C0EBA202C5
:1012300081FB0216D117C1EBA60101EB8101B2EBD4
:1012400041017D4A82FB032314BFCEB2C826D0EBF6
:1012500063134FF47A7014BF5FFA83FA4FF0C80A31
:1012600007F010FD3B78002B40F09F80B8F1000F95
:1012700007D04FF47A7007F005FD3B78002B40F063
:10128000C4804FF47A7007F0FDFC3B78002B40F0EF
:10129000B6804FF4FA7007F0F5FC3B78002B40F075
:1012A000A8804FF42F7007F0EDFC3B78002B40F046
:1012B0009A802378022B82D12B7803E0574D2B782C
:1012C000012B62D0022B7FF47AAF564B18680AF0DC
:1012D0006DF95A490AF072FA002104460AF06CFBD3
:1012E00000286FD04FF07C5120460AF0ABF80AF08E
:1012F00077FB0AF05BF90AF073FB4C4D642303FBA8
:1013000000F085FB0035C217C2EBA515132D42DD99
:10131000454BEE1783FB0523C6EBA30606EB8606BB
:10132000A5EB4606AD1B4249434A424FAB1901FBB0
:10133000030082FB0023C017D0EB631018BFC4B2B8
:101340004FF4FA7008BFC82407F09CFC3B7823BB1D
:1013500036B14FF47A7007F095FC3B78002B39D109
:101360004FF4FA7007F08EFC3B782BBB4FF42F70D4
:1013700007F088FC3B78002B3FF421AF2246032185
:101380000F20BDE8F047FFF797B8254B1B78052BDA
:101390007FF415AF1EE70026C5E7EAB203210F2050
:1013A000FFF78AF8D4E7BDE8F0875FFA89F20321F6
:1013B0000F20FFF781F859E76E2201210F20FFF778
:1013C0007BF8D3E74FF07C5120460AF039F80AF059
:1013D00007FB8EE7F2B203210F20FFF76DF8BFE79E
:1013E0004FF0000818E7324603210F20FFF764F89A
:1013F0005FE7524603210F20FFF75EF851E76E22A8
:1014000001210F20FFF758F843E75FFA88F2032124
:101410000F20FFF751F834E721B4FF1F50AFFF1F33
:1014200058B1FF1FB8B4FF1F67666666D34D6210E0
:1014300018FCFFFF0296FF1F1F85EB510000C842FA
:101440002DE9F04FDFF838B28948DBF80030DFF8DB
:101450004C82DFF844A2002BB8BF002385B0B8BF90
:10146000CBF800300622834B002104F0F3F9DBF8BF
:101470000070814B7E480C2683FB073400234FEA23
:10148000E7793C4401932D2226231421009604F091
:101490009DFAC9EB6414794B75480196A4EB0415C9
:1014A00007EB850583FB0737C9EBA71301274FF02F
:1014B000080908EB03132D2214210297CDF80090A0
:1014C00004F00CFA8AFB0432E317C3EBA20303EB2C
:1014D0008303A4EB430308EB03132D221D2164486F
:1014E00002970196CDF80090022404F0F7F908F174
:1014F000A0032D2226215E4802970196009404F055
:10150000EDF98AFB053AEB17C3EBAA0A08EB0A13BD
:101510002D222921564802970196CDF800900AEB1A
:101520008A0A04F0DBF9A5EB4A0308EB03132D222A
:1015300032214F4802970196CDF8009004F0CEF981
:101540004B484F4D04F030FB4E4B1B78BB4202D052
:1015500005B0BDE8F08F4C4E3178B94231D0022948
:10156000F6D14A4B1B78012BF2D1DBF80020424C1C
:1015700084FB02039818D317C3EB6013A3EB03108B
:1015800002EB8002642000FB0323092B50DD82FB69
:1015900004455419D017C0EBE400C0EB00108242A0
:1015A000D6D13B4A1278002AD2D03A4A1278002A81
:1015B000CED13948DA1780FB0303C2EB6302D2B203
:1015C00040E0324B1B78013BBB42C1D82A682A4B12
:1015D00083FB02139918D317C3EB6113A3EB031119
:1015E00002EB8102642101FB0323092B30DD224938
:1015F00082FB01015018D117C1EBE001C1EB0111D1
:101600008A42A5D1224A1278002AA1D0214A127812
:10161000002A9DD10522214693FBF2F20F20D2B27F
:10162000FEF74AFF174B1B78012B91D1317896E7D3
:10163000174B1B78002B8BD0164B1B78002B87D1B8
:10164000D2B203210F2005B0BDE8F04FFEF734BF42
:101650000F4B1B78002B3FF47BAF0E4B1B78002BFE
:101660007FF476AFD2B203210F20FEF725FFD9E732
:1016700094AFFF1FB057020089888888B5814E1B40
:1016800060B1FF1F21B4FF1F50AFFF1F58B1FF1FF4
:101690000296FF1F24B0FF1F676666667C9DFF1FD2
:1016A000002870B5B8BF40420C46B4BF01210021EC
:1016B000022A30D0032A19D0012A01D0204670BD59
:1016C000224B234D83FB00230344C2172D78C2EB2A
:1016D0006312A2EB0213032D00EB830300D179BB4D
:1016E0001C4920460BF0DEF8204670BD1A4A1B4B01
:1016F0001B4D1C4982FB0026C217C2EBA61203FB3E
:10170000020085FB0053C017C0EB631320460BF0AB
:10171000C9F8204670BD104A104B134D134982FB87
:101720000026C217C2EBA61203FB020085FB005382
:10173000C017C0EBA30320460BF0B4F8204670BDE1
:101740000B4920460BF0AEF8B8E700BF89888888BF
:1017500050AFFF1FC0570200D34D621018FCFFFFAF
:101760001F85EB51D857020067666666CC570200AA
:10177000B45702002DE9F04F91B04FF01008904C93
:101780009048CDF80080002519221B2314210195D3
:1017900004F01CF98C4F2368DFF864928948CDF877
:1017A0000480A7FB0323DB084FF0010B4FF00C0A6A
:1017B00003EB4303192209EBC3031421CDF808B04E
:1017C000CDF800A004F08AF82368804ECDF808B068
:1017D000A7FB0327FF0807EB8707A3EB470707EBE8
:1017E000470309EBC303CDF80480CDF800A019220C
:1017F0002121744804F072F833785B451FD0022B26
:1018000005D0704804F0D0F911B0BDE8F08F704FEA
:101810003B78012B00F09C80022BF2D12368002B37
:10182000EFD06C496C4A0B680793079B10680968F6
:1018300006916A49069C14601B1A0B60E1E740227E
:10184000029301920092664B5E48614F2A463F2107
:1018500004F044F839238DE8280003223A23432179
:10186000584804F0B3F897F80080D84500F0CC80D1
:10187000B8F1020F66D1574B574A1B6804931068A2
:10188000049B22685549574D1B1A012A0B6000F032
:101890006881022A696800F06181032A40F0AE8104
:1018A000AA685B1A9B1AEB60002915DD4E4B454870
:1018B0000122462103F0CEFF022208A96868FFF743
:1018C000EFFE4A4902464A480AF0ECFF484B3D48C1
:1018D0000222462103F0BEFFA86800280EDD022286
:1018E00008A9FFF7DDFE4349024641480AF0DAFF46
:1018F0003F4B34480322462103F0ACFFE868002840
:101900000EDD022208A9FFF7CBFE3B49024638480C
:101910000AF0C8FF364B2B480422462103F09AFFF9
:10192000286900280EDD022208A9FFF7B9FE334915
:1019300002462F480AF0B6FF2D4B224805224621C9
:1019400003F088FF33785AE73378022B7FF459AFDE
:101950002568DFF86C8085B3012D00F08A811D4B6E
:101960001D4A1B680593DFF89C801168059BD8F819
:1019700000001C4ADFF864905B1A181A42F8250030
:1019800008A90322C9F80030FFF78AFE014618486B
:101990000AF0AEFF2268052A00F2D8800132D2B2E6
:1019A000134B0848412103F055FF3378D9F8002044
:1019B000C8F80020022B7FF424AF3B782CE700BF4F
:1019C000CCB4FF1F94AFFF1FCDCCCCCC21B4FF1FF4
:1019D00050AFFF1F50B8FF1F5CB1FF1FB8B4FF1F0F
:1019E000789BFF1F70B4FF1FFC57020008580200CD
:1019F000B8B2FF1F10580200185802002058020009
:101A0000409AFF1F68B4FF1FAA48DFF8D8A2DFF88A
:101A1000D892DAF800300268DFF8D0B2D9F80410B2
:101A2000DFF8CCE20360D21ACBF80030A24BDEF82C
:101A300000E0C9F808100029C9F80420C3F800E044
:101A400082DD18238DE8280005223B2341219B4895
:101A50009B4D9C4F03F0BAFF42469B4B9748422157
:101A600003F0F8FE994B95480422422103F0F2FE60
:101A7000974B92480622422103F0ECFE8E49D9F89A
:101A800004C0D9F808200868DBF800302168DFF8C6
:101A900064E26244834202EBD272A8BF0346521052
:101AA000B0F5967F93FBF2F30B442B603A605BDD5D
:101AB000F020CEF80000DFF8409290FBF2F0622BAD
:101AC000C9F8000040F3A480DFF83082622859DDB5
:101AD0002B682168DAF800E03D6878485F1A05FB5A
:101AE00017E54FF00C0900227A4F019211232E22A4
:101AF0006921CDF8009003F069FF87FB0537EB17EC
:101B0000C3EBA7074FF0010B4FF0080A08EB0713D0
:101B10002E2269216948CDF80490CDF808B0CDF89F
:101B200000A007EB870703F0D9FEA5EB470308EBFE
:101B30000313CDF808B0CDF80490CDF800A02E2204
:101B400072215E4803F0CAFE337858E6043AD2B2F6
:101B5000614B5A48602103F07DFE26E75B1AAB60BB
:101B6000A2E619466B609FE63C380028CEF80000DC
:101B7000A1DCDFF884910022622BC9F8002047DD48
:101B8000DFF878814D484FF00C0B00230193692159
:101B9000CDF800B011231E2203F018FFD9F8003051
:101BA0004C4ACDF804B082FB0312DB17C3EBA2034F
:101BB00001220292082208EB0313009269211E22DF
:101BC0003E4803F08BFED9F800203C48CDF804B025
:101BD0000123029303F1663383FB0231D317C3EB76
:101BE000A10303EB8303A2EB43030822009208EB5B
:101BF00003131E22722103F071FE69E7042A7FF4A9
:101C000053AEA868EA685B1A1B1A9B1A2B614BE655
:101C1000DFF8C0B0DFF8E48028488BFB0312DB1745
:101C20004FF0010EC3EBA20308210C228DE8064001
:101C300008EB03130522692103F050FE2A681F48B0
:101C4000012302938BFB023BD317C3EBAB0303EBE4
:101C50008303A2EB43034FF00C0C08228DE8041021
:101C600008EB03130522722103F038FED9F80000B7
:101C70002CE74FF040090295184B1048CDF804901E
:101C800000223F21CDF8009003F028FE39220023E6
:101C90008DE80C0043213A230322084803F096FE06
:101CA0002A4649460E4B054803F0D4FDD8F80050AB
:101CB00055E600BF8CAFFF1F9CAFFF1F94AFFF1F07
:101CC00084B1FF1F18AFFF1FE4570200EC5702005A
:101CD000F457020067666666B8B2FF1F789BFF1F65
:101CE000FC570200E4AEFF1F70B4FF1F2CB4FF1FAF
:101CF00060B1FF1F84AFFF1FB0B4FF1F7C9DFF1FAB
:101D000038B5094C094B0D4602460421204603F024
:101D1000A1FD20462A46064B042103F09BFD2046E8
:101D2000BDE8384003F040BF94AFFF1FF4580200F5
:101D300028580200F0B585B0174C184B184D4022BA
:101D4000012701928021002206460091204611467B
:101D5000029703F0C3FD3A462046124B0A2103F0D6
:101D600079FD2046104B02220A2103F073FD0F4B30
:101D7000032220460A2103F06DFD31462878FFF743
:101D8000BFFF204603F010FF2878314605B0BDE8BC
:101D9000F040FFF7B5BF00BF94AFFF1F3C96FF1F99
:101DA000D0B4FF1F145702004C57020070570200B6
:101DB000F0B585B0144C154B154D4022012701920A
:101DC000802100220646009120461146029703F02A
:101DD00085FD3A4620460F4B0A2103F03BFD0E4B92
:101DE000022220460A2103F035FD31462878FFF70C
:101DF00087FF204603F0D8FE2878314605B0BDE8BD
:101E0000F040FFF77DBF00BF94AFFF1F3C96FF1F60
:101E1000D0B4FF1F2C5802003458020070B506469B
:101E200084B03048304D03F01BFF012400224021D4
:101E3000802302940191009311462C4B294803F012
:101E40004DFD22462A4B27480A2103F003FD294B6A
:101E5000244802220A2103F0FDFC274B21480322DB
:101E60000A2103F0F7FC254B1E4804220A2103F047
:101E7000F1FC234B1B4805220A2103F0EBFC214B0C
:101E8000184806220A2103F0E5FC1F4B15480722DB
:101E90000A2103F0DFFC002401E0072C0FD015F825
:101EA000013F012B04F1010414D0002BF5D1174B95
:101EB0000C48E2B2412103F0CDFC072CEFD1144BCA
:101EC00031461878FFF71CFF064804B0BDE87040A3
:101ED00003F06ABE0F4B0348E2B2412103F0BAFCA3
:101EE000DBE700BF94AFFF1F7BAFFF1F3C96FF1FD8
:101EF00044580200585802006C58020080580200F2
:101F000094580200A8580200BC580200D45802009D
:101F1000D0B4FF1FD058020030B585B00125002293
:101F20004021802302950191009311463E4B0446C7
:101F30003E4803F0D3FC2A463D4B3C480A2103F0BF
:101F400089FC3C4B394802220A2103F083FC3A4BBE
:101F5000364805220A2103F07DFC384B334806221F
:101F60000A2103F077FC364B364A1B78364937484E
:101F700003EB830303EB83039B0082FB03521A44AE
:101F8000DB17C3EB22120AF08DFC304B27480322EB
:101F90000A2103F05FFC2E4B1B78012B3CD034D37D
:101FA000022B05D12B4B214803222D2103F052FC9B
:101FB000294B1E4804220A2103F04CFC274B1B48E6
:101FC0001B78012B0CBF264B264B04222D2103F03E
:101FD00041FC254B15481B78012B0CBF204B214B96
:101FE0000622462103F036FC0122204B0F48322105
:101FF00003F030FC1E4B21461878FFF781FE0B489A
:1020000005B0BDE8304003F0CFBD164B07480322B2
:102010002D2103F01FFCCBE7114B044803222D2197
:1020200003F018FCC4E700BF3C96FF1F94AFFF1FEE
:10203000D8580200E8580200F8580200045902007B
:102040006D9BFF1F8988888810590200B8B2FF1F56
:102050000296FF1F345902003C5902000796FF1FE9
:102060002C59020024590200B2B3FF1FBCB4FF1F59
:10207000D0B4FF1FF0B51F4C1F4B85B001250022C7
:102080004027802106468DE88200204611460295B1
:1020900003F024FC2A462046184B0A2103F0DAFB01
:1020A0002046174B02220A2103F0D4FB2046154B91
:1020B00003220A2103F0CEFB2046134B04220A21FF
:1020C00003F0C8FB2046114B05220A2103F0C2FB96
:1020D000204606220E4B0A2103F0BCFB0D4B314675
:1020E0001878FFF70DFE204605B0BDE8F04003F07C
:1020F0005BBD00BF94AFFF1F3C96FF1F4859020015
:1021000058590200685902007859020088590200A3
:1021100098590200D0B4FF1F074A1378012B09D940
:10212000591E10B4C9B2054C11702370184610BC6A
:10213000FFF7E6BD704700BF64B1FF1FD0B4FF1FBB
:10214000084A094913780978994200DC7047591CFC
:1021500010B4C9B2054C11702370184610BCFFF7BB
:10216000CFBD00BF64B1FF1F65B1FF1FD0B4FF1F1B
:10217000F8B5194B19481B68194D1A4C1A4A1B49D6
:102180002E78257814781A4A80FB0370DB17C3EB8E
:10219000A0073940C3EBA02300294FF001001371C1
:1021A000107056709570D47011DB124C124D517135
:1021B00004F1C40615F8013F012B03D01C34B442CE
:1021C000F8D1F8BD21460D4804F03CF9F6E7013995
:1021D00061F0FF010144E8E7B8B4FF1F6766666677
:1021E00021B4FF1F50AFFF1F58B1FF1FFF00008039
:1021F000A0B4FF1F30B0FF1F7BAFFF1FA0AFFF1FBA
:102200000B4A0C4B126870B50B4C5A700B4D0222E6
:102210001A7004F1C40615F8013F012B03D01C34D9
:10222000B442F8D170BD2146054804F00BF9F6E739
:10223000CCB4FF1FA0B4FF1F30B0FF1F7BAFFF1F48
:10224000A0AFFF1F2DE9F0416B4D2C78012C84B01D
:1022500004D0022C62D004B0BDE8F081674B1E7838
:10226000022E00F08F80032E31D0012EF3D164486E
:10227000644F03F0F5FC64480296402400221146A6
:1022800001940094614B06705D4803F027FB5F4B9F
:102290005B48019400223F210094029603F01EFB4C
:1022A0005B4A5C490023F020536093600B60386008
:1022B000FFF760FAFFF75CFFFFF7A2FF564B3A68A3
:1022C0001B689A421FDD554A3B6013601BE04E4B72
:1022D0004B481C7003F0C4FC002240218023019174
:1022E000009311464E4B4648029403F0F7FA4A4BCE
:1022F00044481A6849494FF416739A4203600B60C8
:10230000BCBF02600A60FEF7D1FBFFF799F8FEF749
:1023100019FBFEF777F92C78022C9CD1384803F092
:102320009FFC394A394B3648002440250126147059
:102330002146224602960195009503F0CFFA2246E7
:10234000324B2F4802963F210195009503F0C6FAC3
:10235000304A2C492E4B14601E200860224603F19F
:102360002C0143F8042B8B42FBD1FFF703FAFFF754
:10237000FFFEFFF745FFFEF7E5FA04B0BDE8F041C8
:10238000FEF740B9204E3378032B3FF664AF1C486C
:10239000DFF8708003F064FC4027002211460294AD
:1023A00001970097194B1648347003F097FA174BB2
:1023B0001348019700223F210097029403F08EFA00
:1023C000134A144900233C2053609360D360136187
:1023D0000B60C8F80000FFF7CDF9FFF7C9FEFFF763
:1023E0000FFF0D4BD8F800201B689A428BDD0B4A7B
:1023F000C8F80030136086E721B4FF1F50AFFF1FFD
:1024000094AFFF1FE4AEFF1F58B1FF1F789BFF1F63
:1024100070B4FF1FCCB4FF1F60B1FF1F24B4FF1FB7
:102420003C96FF1F70B50A4B0A4C0B4D58700522A5
:102430001A7004F1A80615F8013B012B03D01C34D7
:10244000B442F8D170BD2146044803F0FBFFF6E723
:10245000A0B4FF1F30B0FF1F7CAFFF1FA0AFFF1F56
:1024600070B58AB0684603F061FF174A174B1278BF
:10247000174E184C18490225403254201A705870D3
:102480001A4605A82B46357003F060FF9DF81930F9
:10249000089A9DF81860079D8DF8053069469DF8EB
:1024A0002430039220468DF810308DF80460029598
:1024B00003F0C8FF6846094903F066FF69462046F5
:1024C00003F0C0FF0AB070BD6C9BFF1F0896FF1F92
:1024D000D8B4FF1FA0AFFF1F0096FF1F2496FF1F59
:1024E000F0B5184C89B02046002103F0EDFE2046DF
:1024F000002103F0EDFE2146134A684603F064FF15
:1025000005AB93E80300114B9DF804209DF805E00E
:10251000029E1A71039F9DF81050BDF81C4083F86D
:1025200005E003F1140282E803009E609DF81E207E
:102530000748DF6019461D749C839A7703F082FF79
:1025400009B0F0BDA8B4FF1F789DFF1F1CAFFF1F8F
:10255000A0AFFF1F2DE9F0414FEAC00888B0074641
:1025600008F1140508F1180400262946244803F050
:102570003DFC01353602AC420644F6D108F11C0898
:10258000002521461E4803F031FC01342D0244454C
:102590000544F6D131461B481B4C03F095FE2946F5
:1025A000184803F095FE194A1649684603F00CFFD7
:1025B00005AB93E8030004F1140383E803009DF8DE
:1025C00010E09DF804309DF80500029E039DBDF8C3
:1025D0001C2023710A379DF81E306071F9B2204625
:1025E00084F810E0A660E560A283A37703F062FEA2
:1025F0002146074803F026FF08B0BDE8F08100BF80
:10260000FCB4FF1FA8B4FF1F1CAFFF1F709BFF1F70
:10261000A0AFFF1F30B58BB00446684603F086FEBE
:10262000264B274A1B78601E4033137004280AD8B3
:10263000DFE800F030353A3F0300502041215323BA
:1026400010705170937003241E4D1D4A1E492C704A
:10265000234605A803F07AFE9DF81910089A9DF804
:1026600024309DF81850079C8DF8051017480392E8
:1026700069468DF810308DF80450029403F0E2FEA4
:102680006846134903F080FE6946104803F0DAFEFD
:102690000BB030BD4121312351709370D3E74321FA
:1026A000412351709370CEE74221312351709370D2
:1026B000C9E74321422351709370C4E76C9BFF1F0D
:1026C0000896FF1FD8B4FF1F749BFF1FA0AFFF1F0A
:1026D0002496FF1F2DE9F041C7008CB0804607F11A
:1026E000140507F1180400262946274803F07EFB4D
:1026F00001353602AC420644F6D11C37002521468E
:10270000214803F073FB01342D02BC420544F6D18D
:1027100031461E481E4C03F0D7FD29461B4803F0E6
:10272000D7FD08F10A03DBB203931A4A0192002392
:102730000821029100934FF6FE72144905A803F098
:10274000D7FDC8EBC80809AB04EB880493E8030085
:102750009DF818309DF8202023719DF81960079D81
:10276000227304F110036671A5609DF82E20A276F5
:1027700083E80300BDF82C109DF82F302183E37609
:102780000CB0BDE8F08100BFFCB4FF1F28B1FF1FF3
:1027900030B0FF1FA0B4FF1F2DE9F0474FEAC0087B
:1027A0008AB0074608F1140508F1180400262946E6
:1027B0005D4803F01BFB01353602AC420644F6D1FE
:1027C00008F11C0800252146574803F00FFB01348F
:1027D0002D0244450544F6D1DFF86C815348544C32
:1027E000314603F071FD534E5048294603F070FD09
:1027F0004FF0040A98F8000098F8012098F80210A9
:1028000098F80350CDF800A00DF11C093346307044
:102810007270B170F57002A8474A444903F0B6FDE2
:1028200099E8030004F1140585E8030007F10A03A1
:102830009DF80C109DF80D202171D9B2049B627196
:10284000A360059A9DF81830E2602374BDF8242037
:102850009DF82630A2832046A37703F02BFD214666
:10286000364803F0EFFDCDF800A098F8043098F852
:10287000050098F8061098F807E03370707033463A
:10288000B17086F803E02E4A284902A803F07EFDC5
:1028900099E803009DF818E0059A9DF80D3084F83A
:1028A00010E085E8030007F10B069DF80C10049872
:1028B000E26021716371F1B29DF82630BDF82460A9
:1028C000A0602046A377A68303F0F4FC21461B48B2
:1028D00003F0B8FD02A81B4A144903F075FD99E8FE
:1028E00003009DF80DC09DF818E0049EBDF824205B
:1028F0009DF8263084F805C085E803000C379DF864
:102900000C10059D21712046F9B284F810E0A660F4
:10291000E560A283A37703F0CDFC2146074803F0CE
:1029200091FD0AB0BDE8F087FCB4FF1FA8B4FF1FFB
:102930001CAFFF1F0896FF1F0C96FF1FA0AFFF1FC5
:102940001096FF1F2496FF1F18B1FF1F70B58AB0A5
:10295000002468460F4D03F0E9FC23460E4A0F4958
:102960002C7005A803F0F2FC9DF819609DF8185032
:10297000079C089A9DF8243009488DF8056069463F
:102980008DF80450029403928DF8103003F05AFD34
:102990000AB070BDD8B4FF1F0896FF1F2896FF1F0E
:1029A000A0AFFF1F70B58AB0002468460F4D03F03A
:1029B000BDFC23460E4A0F492C7005A803F0C6FC47
:1029C0009DF819609DF81850079C089A9DF82430CE
:1029D00009488DF8056069468DF804500294039209
:1029E0008DF8103003F02EFD0AB070BDD8B4FF1F73
:1029F0000896FF1F3896FF1FA0AFFF1F012810B5D4
:102A00001CD012490A78012A0CD001240C702246ED
:102A10000F4B10486E2102F01DFF0E48BDE810401C
:102A200003F0C2B800240C700A480B4B6E2102F070
:102A300011FF0848BDE8104003F0B6B80246074B46
:102A400004486E2102F006FFE7E700BF28B4FF1F2D
:102A50002858020094AFFF1FF4580200A859020042
:102A600070B5162005F066FD400008F09FFD17497F
:102A7000174E08F0EFFD4FF06A5108F0EBFD1549D5
:102A800008F0E0FC08F0ACF904460D460022124BB9
:102A9000C6E9004508F06AFC30B900220F4B204619
:102AA000294608F081FC80B122462B460C490D488E
:102AB00009F0F8FE0C480B4B0622402102F0CAFE3A
:102AC0000948BDE8704003F06FB870BD3333534020
:102AD0003096FF1F9A99593F0000F03F00000840D0
:102AE000AC590200B8B2FF1F94AFFF1FF0B51A4CEB
:102AF0001A4B85B0012500224027802106468DE82B
:102B0000820020461146029502F0E8FE2A46204641
:102B1000134B0A2102F09EFE2046124B02220A218C
:102B200002F098FE204603220F4B0A2102F092FE8B
:102B30000E4B31461878FFF7E3F820462A460C4B37
:102B40003F2102F087FEFFF78BFF204605B0BDE86E
:102B5000F04003F029B800BF94AFFF1F3C96FF1F61
:102B6000BC5902002C580200C4590200D0B4FF1F07
:102B7000BCB4FF1FF0B59B4D9B4C2A789B489C4EE4
:102B800085B0002103F068F922789848012103F00C
:102B900063F932789548022103F05EF9954803F015
:102BA0005FF82378142B28D8DFE813F058006B0067
:102BB0008700D600270027002700270027002700CE
:102BC00027002700270027002700270027002700CD
:102BD000270027002D00884B1A78002A40F04182F8
:102BE00001241C7022460721804803F033F9834AF0
:102BF000012310782B70FFF78FF97E4805B0BDE8F0
:102C0000F04002F0D1BF0124002240218023019135
:102C10000093114602947A4B764802F05FFE2246FA
:102C2000784B74480A2102F015FE774B7148032255
:102C30000A2102F00FFE754B75497648D3E900234F
:102C400009F030FE734B6B4805220A2102F002FEA8
:102C5000684805B0BDE8F04002F0A6BF01236E4908
:102C60006E4D664C0B701846002203272F702370A0
:102C70003270FFF73BFF5F4805B0BDE8F04002F05F
:102C800093BF2C78574D012C00F09F80002CB4D1BD
:102C9000584802F0E5FF3578022D00F01581032D2C
:102CA00000F0AC81012D00F07D81524802F07CFFE4
:102CB000FDF7FCFEFDF746FE9FE72C78494D012C01
:102CC00076D0002C99D14B4802F0CAFF3578012DFF
:102CD00000F0B680022D90D140264648012702F030
:102CE000BFFF019600964E4B42480297224621466E
:102CF00002F0F4FD01960096494B3E48494E02977A
:102D000022463F2102F0EAFD474A48484849494BDC
:102D100034701E26157006600C6003F1280243F81B
:102D2000044F9A42FBD1444B32480122402102F029
:102D300091FDFFF71DFAFFF763FA2E4802F034FF0A
:102D4000FDF7B4FEFDF7FEFDFDF75CFC3B4B1B7889
:102D5000002B3FF452AFB1E02C78224F012C19D058
:102D6000002C7FF44AAF234802F07AFF33780A3B05
:102D7000052B3FF642AF01A252F823F0792F000055
:102D8000612F0000472F0000932F0000412F00000B
:102D9000D72B00001949214B0C701F4A06212046F1
:102DA00019700A2314703370FFF7B6F83C78D7E730
:102DB0001A49124A184B34702046022714701C70AE
:102DC0000F70FEF7F5FF2C787BE714490B4A124B86
:102DD00034702046032714701C700F70FEF7AAFF92
:102DE0002C7853E77A9DFF1F21B4FF1FFCB4FF1F0F
:102DF00050AFFF1F94AFFF1FB2B3FF1F64B1FF1F9F
:102E00003C96FF1FDC590200E85902003096FF1F74
:102E1000AC590200B8B2FF1FD0B4FF1F65B1FF1F4D
:102E2000789BFF1F58B1FF1F20B4FF1FE4AEFF1FA8
:102E3000CCB4FF1F70B4FF1FD45902000296FF1FCD
:102E40004026904802F00CFF0295019600968E4BAA
:102E50008C482246214602F041FD019600960295DB
:102E6000894B8848894D22463F2102F037FD884929
:102E7000884A8948894B0C701E26022111702E60E9
:102E8000046003F1280243F8044F9A42FBD1FFF794
:102E90006FF9FFF7B5F97B4802F086FEFDF706FEF5
:102EA000FDF750FDFDF7AEFB7D4B1B78012B7D4BF5
:102EB0001B7800F0CD80002B3FF49FAE77220121DC
:102EC0000F20FDF7F9FA98E64025012602960195B4
:102ED00000956D4B6B48704F2246214602F0FEFC78
:102EE000029601950095684B66486C4D22463F213D
:102EF00002F0F4FC664A6C49644814703246F026CD
:102F00000E603C26694B066021465E483C606C6062
:102F1000AC60EC602C6102F09DFCFFF729F9FFF733
:102F20006FF9FDF76FFB5E4B1B78012B00F09F8064
:102F30005C4B1B78002B40F0858002F0F5FEB4E678
:102F4000FDF79CFC59E6574A13780133DBB2022B9C
:102F500095BF1C460023137013706321224643E67D
:102F60000123534C5349544A0B70072518462570CA
:102F70001370FEF753FF40E6504B4E491B784E4C02
:102F80004B4A0B701846062123701170FFF772F838
:102F900033E64B4B1A78002A66D101241C70224676
:102FA000082121E6402602950196009622462146F8
:102FB000354B3448384F02F091FC0196009602954B
:102FC0002246314B2F48354E3F2102F087FC304AD4
:102FD00035492E4814702A464FF4D2750D60F025FD
:102FE000384B0560214627483C607460B46002F0AD
:102FF00031FCFFF7BDF8FFF703F999E78022402382
:1030000001258DE82C00214622462F4B1D481F4FDD
:103010002E4E02F063FC1E4ADFF88CE0147021464D
:103020004FF434742A4BCEF8004016484FF416740F
:103030002A463C60346002F00DFC1A4B1B78002BD2
:103040003FF47BAF772201210F20FDF735FA74E7BB
:10305000002B3FF4D2AD772204210F20FDF72CFA8C
:10306000CBE500221A70BDE500221A7097E70D4BE0
:103070001B78002B3FF461AF772204210F20FDF76E
:103080001BFA5AE794AFFF1F789BFF1FE4AEFF1FA8
:1030900058B1FF1F20B4FF1FCCB4FF1F70B4FF1F37
:1030A000B2B3FF1F0296FF1F60B1FF1FCC59020091
:1030B00065B1FF1F64B1FF1FD0B4FF1F6C9BFF1FE2
:1030C0000796FF1F145702003C96FF1F24B4FF1FF2
:1030D000705702002DE9F04342F2107085B006F0FF
:1030E00095FA0A219448DFF8E092944F944EDFF865
:1030F000DC8204F0BFFC934B4FF40042002401211A
:1031000017209A611C625C620D4605F08FFD8E49A6
:103110008E4889F8005002F049FA4FF47A718B48D2
:1031200002F040FA8A494FF47A7002F0E9FD20215A
:10313000884802F013FD874802F092FD402080236A
:1031400022462146019000938248834B029502F06B
:10315000C5FB824B7F480222032102F07BFB804BA0
:103160007C480322062102F075FB7E4B794805223C
:10317000062102F06FFB774802F016FD7A4A7B4B7E
:103180007B48147021461C7002F030FE794B2946B2
:103190001870774802F02AFE02213870744802F055
:1031A00025FE754B09211870714802F01FFE734B04
:1031B000632118706E4802F019FE714B07211870D8
:1031C0006B4802F013FE08213070694802F00EFED1
:1031D000622189F80000664802F008FE694B88F811
:1031E0000000062162481C7002F000FE664B187059
:1031F000FDF766FA98F80030013B052B4FD8002404
:10320000E0B20134FFF766FA072CF9D114215F48C8
:103210005F4D07F053FA5F4805F06AF80A2421462B
:10322000534802F0E3FD0134112C05F8010FF6D1EB
:103230004FF47A714E4802F0C3FD41F2883005F038
:1032400031FE5549554802F095FF5549554803F060
:103250009BF85449514803F0F5F83C4802F08AFACB
:1032600032282DD040F6B83005F00CFD4E4B00242E
:103270001C70FDF725FBFFF77DFC2146172005F0AC
:10328000C1FC2146494803F029FB3378012B0ED0BD
:10329000FDF77CF905B0BDE8F043FFF757BB2A46C0
:1032A0006221334888F8005002F0D4FDA7E7404976
:1032B000404803F0E7FC05B0BDE8F043FFF746BB2C
:1032C000FDF76AFA08213C4807F0F8F9314805F0A3
:1032D0000FF801241F483C7002F0C2FC002240217C
:1032E000802301910093114602941B4B194802F070
:1032F000F5FA2246314B17480A2102F0ABFA304B5F
:10330000144803220A2102F0A5FA2E4B1148052287
:103310000A2102F09FFA0F4802F046FC21461720CE
:1033200005F070FC4FF4FA6005F0ACFC00211720AA
:1033300005F068FC96E700BF0082FF1F21B4FF1F65
:10334000B2B3FF1F30B4FF1FDD3A000088B1FF1F8A
:103350006D04000094AFFF1F3C96FF1FF859020058
:10336000005A0200085A0200D1B4FF1F90AFFF1F9D
:10337000FCB4FF1F7A9DFF1F50AFFF1F6C9BFF1F08
:103380000296FF1F24B0FF1F6D9BFF1F145A0200FF
:103390007BAFFF1F68A4FF1F5CA3FF1FA0AFFF1F31
:1033A0000096FF1FF4B0FF1F51AFFF1F68B1FF1F52
:1033B000ACFC000030B1FF1F2C5A0200DC590200A7
:1033C000385A0200B8B2FF1F0796FF1F2296FF1F50
:1033D000F0B5A14CA14E2378A14DA2490022322084
:1033E000012B8BB032702A7008702CD0022B01D0C8
:1033F0000BB0F0BD9C4D2B78012B45D0022BF7D1A3
:103400009A4A1378032B00F03E82042B00F02A82A4
:10341000002BEDD103231370FDF7F4F8944B1B78C8
:10342000012B944B1B7800F07D8223B17622012181
:103430000F20FDF741F8904B23221A70FEF798FEFB
:10344000FDF780FAD4E7884D2B78012B34D0022B7E
:1034500026D0032B04D02378022BC9D12B78CDE7BB
:10346000824E3278012A00F03A8235D3022A09D1FD
:10347000804A33701378002BEDD0782201210F2081
:10348000FDF71AF82378B1E7784E3378052BE5D8A5
:10349000DFE813F0C001A30191016B014501420176
:1034A000724E3378052B74D8DFE813F01601F8005C
:1034B000BE009C00790071006C4E3378052B09D852
:1034C000DFE803F04C3622160803FFF753FB23789E
:1034D000012B8BD12B78BAE7664B1B780121317019
:1034E000002BB8D0DC220F20FCF7E6FF23787DE725
:1034F000624A136801331360FEF73CF9FEF780FE61
:10350000FDF744F82378E3E75D4B5E4A19681268DB
:103510008A42B8BF1A60574B1B7803223270002BC7
:1035200040F04482FEF724FEFDF70CFA2378CFE743
:103530005349544A0B6812689342C4BF0A60134649
:103540004C4A514912780B6002233370002AE9D0AB
:10355000762201210F20FCF7AFFFE3E7454B1B78F4
:1035600001213170002B40F02782FEF701FE192265
:1035700000238DE80C00052136231722434802F072
:1035800025FAFEF7F7F8FDF7DDF92378A0E7FFF756
:10359000F1FA2378012B7FF429AF2B7859E7344BCC
:1035A0001B78012B00F01F82FCF7F0FF334F3B68C4
:1035B00001333B60FEF7DEF8FEF722FE3B68042B8A
:1035C000E7D1337801333370FDF770FAFEF7D0FDA1
:1035D000FDF76CFA4FF47A7005F054FBFDF7E6FD49
:1035E0002378D7E72A4B2B4A19680491049F1B685C
:1035F00003932949224B176003980860002204278F
:103600001A603770FCF7FEFF194B1B78012B194B22
:103610001B7800F0DF81002B40F03082FEF7A8FD20
:10362000FDF790F92378B5E703233370FCF7EAFF41
:103630000F4B1B78012B0F4B1B7800F00482002BE3
:1036400040F01082FEF794FD0B4B23221A70FDF719
:1036500079F923789EE700BF21B4FF1F51AFFF1F08
:103660006CB4FF1F60B2FF1F50AFFF1F58B1FF1FA8
:10367000B2B3FF1F0296FF1F24B0FF1FCCB4FF1F81
:10368000E4AEFF1F60B1FF1F24B4FF1F94AFFF1F04
:1036900050B8FF1F5CB1FF1F64B2FF1FA649A74AC5
:1036A0000B6812689342C8BF0A60A549C8BF134699
:1036B00002220B603270FCF7A5FFA24B1B78012B96
:1036C000A14B1B7800F09281002BA7D0742201211E
:1036D0000F20FCF7F1FEA1E701273770FCF792FFFE
:1036E000984B1B78BB42984B1B7800F08881002BCD
:1036F00040F0CA81FEF73CFD192200238DE80C0042
:10370000052136231722914802F060F9FEF732F8BE
:10371000FDF718F923783DE7FFF72CFA9BE68C4F6D
:103720003B6801333B60FEF76BFDFCF76BFFFEF778
:1037300021F83B68092B00F21981824A1278012A8C
:10374000814A127800F0AC81002A3FF484AE814AAD
:103750001278002A7FF47FAE03F10A02D2B201216F
:103760000F20FCF7A9FE237876E67B4B7B4A19688D
:103770000691069F1B680593794B17606E48059F5D
:1037800078496F4A1F600023042703600B601360B1
:103790003770FCF737FF6B4B1B78012B6A4B1B789C
:1037A00000F04881002B40F05781FEF7E1FCFDF767
:1037B000C9F8237850E603233370FCF723FF614BED
:1037C0001B78012B604B1B7800F02B81002B40F005
:1037D0004F81604B23221A70E7E702F0CBFA02F028
:1037E000A3FA33785448564901331E2233700260DD
:1037F0000A60FCF707FF534B1B78012B524B1B78D9
:1038000000F00681002BD0D0742201210F20FCF79C
:1038100053FECAE702F0AEFA02F086FA3378464A5F
:1038200001331E2133701160FCF7ECFE454B1B7811
:10383000012B454B1B7800F0C480002B40F02A81FF
:10384000FEF796FC192200238DE80C000521362393
:1038500017223E4802F0BAF8FDF774F8FDF78AFF28
:103860002378F9E5374B1B78002B50D1FCF78EFEFF
:10387000374A136801331360FDF77CFFFEF7C0FC85
:10388000FDF794FCB4E5344C344D23680893089F4D
:1038900023680793324B334829492F60264E079DF2
:1038A0001D6000230425336003600B601570FCF776
:1038B000A9FE244B1B78012B234B1B782AD023B164
:1038C000692201210F20FCF7F7FDFEF751FCFDF7FF
:1038D00039F823680993244B099A1A6088E5164938
:1038E000164A0B6812689342C4BF0A601346164A10
:1038F000134912780B6002233370002A3FF4ABADFA
:10390000752201210F20FCF7D7FD23786EE5FCF727
:1039100079FEADE7002BD8D0294669220F20FCF7AD
:10392000CBFDD2E7002B3FF486AD762204210F2099
:10393000FCF7C2FD7FE500BFE4AEFF1F60B1FF1FD3
:1039400024B4FF1FB2B3FF1F0296FF1F94AFFF1FE7
:10395000CCB4FF1F24B0FF1F50B8FF1F5CB1FF1F86
:1039600064B2FF1F68B4FF1F10AFFF1F0A2B7FF464
:1039700072AD574B1B7823B9564B1B78002B40F088
:10398000A080337801333370FEF7F2FBFCF7DAFFE7
:10399000FDF78CF84FF47A7005F074F900211720C8
:1039A00005F030F9FDF702FC237855E57522012179
:1039B0000F20FCF781FDB5E5DC220F20FCF77CFD34
:1039C000D3E5002B3FF43CAF6C2204210F20FCF721
:1039D00073FD35E7002B3FF421AE394675220F20E9
:1039E000FCF76AFD1AE6FCF70DFEDFE5002B3FF45D
:1039F00015AE742204210F20FCF75EFD0EE6002BAD
:103A00003FF478AE6B2204210F20FCF755FD71E6E0
:103A1000002B3FF4CAAE742204210F20FCF74CFDAA
:103A2000C3E6002B3FF4D5AE762204210F20FCF72D
:103A300043FDCEE6002B3FF4B8AE394675220F2089
:103A4000FCF73AFDB1E6002B3FF4FCAD76220421F1
:103A50000F20FCF731FDF5E5752201210F20FCF761
:103A60002BFDA2E6762201210F20FCF725FDE9E5DA
:103A7000762201210F20FCF71FFDAAE67522012105
:103A80000F20FCF719FDC9E53946DC220F20FCF7B1
:103A900013FD2FE66C2201210F20FCF70DFDCFE670
:103AA000002A3FF4D8AC0C4A1278002A7FF4D3AC39
:103AB00003F10A02D2B204210F20FCF7FDFC2378A7
:103AC000CAE4C82201210F20FCF7F6FC59E700BF29
:103AD000B2B3FF1F0296FF1F24B0FF1F10B50446AC
:103AE000274801F05BFD022800D010BD322C16D013
:103AF000312CFAD1234C217801291ED00229F4D18E
:103B0000214B1B78012BF0D9204B1B78002BECD1DB
:103B10001F4B1B7843BBBDE81040FEF793BB194C0D
:103B20002378012B18D0022BDFD1184B1B78002BE8
:103B3000DBD1BDE81040FFF71DB8134B1B78012BFC
:103B4000D3D9124B1B78002BCFD1114B1B788BB9DB
:103B5000FEF778FB2178D1E70C4B1B78002BC4D102
:103B6000FFF708F82378DEE7DE2201210F20FCF7BB
:103B7000A3FCD0E7DE220F20FCF79EFCE8E700BFA5
:103B800088B1FF1F21B4FF1F58B1FF1F7A9DFF1F8F
:103B90000296FF1F38B507F023F9094D094C02467C
:103BA0000B462846084908F07DFE20462B46032296
:103BB0003B2101F04FFE2046BDE8384001F0F4BF44
:103BC000B8B2FF1F94AFFF1F485A02002DE9F04F13
:103BD000DFF838A29AF80030022B83B000F0F780AB
:103BE000834A84491778844B844C854D09681B6847
:103BF00044F82710122F45F8273000F2A180DFF893
:103C00003492DFF83482D9F800B0D8F800607B1C19
:103C1000DBB204EB87070193043D1370043C54F8B6
:103C2000041F584607F00EFC55F8041F8346304623
:103C300007F008FCA7420646F1D10198013007F0D1
:103C4000B5FC04462146584607F0B8FD2146054616
:103C50003046C9F8005007F0B1FD00210446C8F80D
:103C6000000007F0B3FE002800F09E802046654962
:103C700007F0ACFE30B96449284607F089FE0028F9
:103C800000F085809AF80030604A002B3BD000217C
:103C9000204607F09BFE00284FD02046594907F0E8
:103CA00081FE38B1D9F800405749204607F08EFE12
:103CB000002852D1564B1B78FBB9D8F8000007F00A
:103CC0008FF802460B465348534908F0EBFD514B21
:103CD00052480422022101F0BDFDD9F8000007F08E
:103CE0007FF802460B464B484D4908F0DBFD494B37
:103CF0004A480522022101F0ADFD484803B0BDE865
:103D0000F04F01F051BF474C237801211170002B77
:103D100058D10322444B4148114601F09BFD2378C2
:103D2000002B44D10120FEF77DFBD8F80040002194
:103D3000204607F04BFE0028AFD104F10044ACE769
:103D4000DFF8F090DFF8F080D9F800B0D8F8006024
:103D500000214FF07E54117074E72046334907F07C
:103D600017FE0028A6D09AF80050284C012DA1D1AA
:103D7000032200202E4B20701146284801F06AFDD6
:103D8000284B1B786BBB0020FEF74CFB92E72846C4
:103D9000264907F01BFE00283FF479AF9AF800305F
:103DA0001A4A002BAFD072E704F100405FE7E0222F
:103DB00001210F20FCF780FB0120FEF733FBD8F830
:103DC0000040B4E7E0220F20FCF776FBA1E70322D6
:103DD000174B1248114601F03DFD00238AF80030D0
:103DE000FEE62946E1220F20FCF766FBCBE700BF89
:103DF00088AFFF1F9CB4FF1FD4B4FF1F68B2FF1F22
:103E0000C0B3FF1F000034420000404020B4FF1F39
:103E100058B1FF1FB8B2FF1F705A020094AFFF1FC6
:103E2000805A02000296FF1F645A02000000C84137
:103E3000585A020028B0FF1F2CB0FF1F2DE9F04F89
:103E40008E4D8F4A2B6810688E49A1B00993099B4B
:103E50001B1A8B4204D98C4F3B78022B00F02A822C
:103E60002B688A4E0B930B9B32688448884C9B1AB4
:103E7000B3F5FA7F00F2C480217813462A680D92C8
:103E80000D9A7E48D21AB2F57A7F02D9012900F044
:103E900004822A680F920F9AD31AB3F57A7F35D924
:103EA00039B9794F3B78032B34D17A4B1B780E2BE1
:103EB0000FD0794801F05EFC3338062800F2938079
:103EC000DFE810F078017F01BD019701A201E40154
:103ED00074002B681093109A704B326070497148CF
:103EE0000022012610271F705E709E70DA701A7112
:103EF0005A7102F0A7FA6C496C4802F045FA6B4916
:103F0000684802F09FFAFCF77DFB21780029D0D1A8
:103F10005D4F3B78022B00F00682012BC9D12B6844
:103F2000634A1393139B116854485B1A092B1CD9DD
:103F30006049036814930B78149810600BB1013B2F
:103F40000B705D4A13780BB1013B13705B4A137819
:103F500033B1013BD9B2117011B9172004F052FEF0
:103F60004C4B1B78022B00F0CE86554A1378012B60
:103F70009FD1484BDFF85881197800200229107032
:103F800098F8002000F00E87032900F0FE86012932
:103F900000F00C86002A40F0F586FCF787FD98F8C3
:103FA0000030002B85D0FDF74BFA82E7424B1B789F
:103FB000CBB944498B78002B00F0FE84324B1A7841
:103FC000531E012B41F297800B78002B00F0A68640
:103FD000022A00F0A686012A05D12E4B1B78032B5E
:103FE00001D1FFF7F5F92F4802F0CAF82D4802F089
:103FF000C5F801F0F7FF00286CD121B0BDE8F08FC3
:104000002178002937D1204F3B78022B00F26C81B8
:10401000DFF8BC8098F80080B8F1000F40F06481B0
:1040200003680C930C9B28492048284F336002F00A
:10403000ABF91E491B4802F005FAFEF711FD38786E
:10404000204A164B125C83F801801021012A83F864
:10405000028083F8038083F8048083F80580197058
:1040600000F0168606288BBF002301303B703870A5
:104070002178336802E7134600E700BF50B8FF1FFE
:1040800010AFFF1FE093040021B4FF1FB4B4FF1F63
:104090007A9DFF1F50AFFF1F88B1FF1FA0B4FF1F05
:1040A00068B0FF1FA0AFFF1F709BFF1FF4B0FF1F82
:1040B00064B2FF1F24B0FF1F60B2FF1F14AFFF1FC9
:1040C000D1B4FF1F7CAFFF1F2096FF1F0CAFFF1F57
:1040D00058B1FF1FAB4802F051F801F081FF97285B
:1040E00000F0E383A74802F049F801F079FF88283F
:1040F00000F0A383A44802F011F8002840F0748176
:10410000A04802F03BF801F06BFF902800F02A83F2
:104110009C4802F033F801F063FF922800F0D0824F
:10412000984802F02BF801F05BFF8B287FF465AF15
:10413000944802F023F8954902F008F82378002B00
:104140007FF45BAF924B1B78032B7FF456AF914B00
:104150001B780E2B7FF451AF8C4801F045FF8E4940
:1041600002468E4808F09EFB8C4B8D4804220A21A3
:1041700001F070FB854801F03BFF8A490246874801
:1041800008F090FB854B864805220A2101F062FB6E
:104190007E4801F031FF84490246804808F082FBE6
:1041A0007E4B7F4806220A2101F054FB7C4801F037
:1041B000FBFC22E72378002B00F04082FDF7ACFFE8
:1041C00011E72378012B7FF40EAF714B1B78032B83
:1041D0007FF409AF754B1B78032B7FF404AF744D4C
:1041E0002B78052B40F25987FCF70CFAFCF7CEF937
:1041F000F9E623786F4A002B00F0F481012B7FF45D
:10420000F2AE634F00F015BC2378012B7FF4EBAEC8
:104210005F4B1B78032B7FF4E6AE644B1B78032BBC
:104220007FF4E1AE624D2B78012BDDD9013BDBB28F
:104230001A46622160482B7001F00CFED4E7227808
:104240005C4D002A40F01382514B1B78032B7FF406
:10425000CAAE504B1B780B2B00F07A860E2B00F069
:1042600071860A2B7FF4BFAE504B544E1B783370CF
:10427000FCF726FB32785048092101F0EDFDFEF7EE
:10428000EFF801232B70FEF775FCACE62378002BCA
:1042900000F0BA81FDF754FFA5E63D4F3A78002AB9
:1042A0002ED002680F920F9AD31AB3F57A7F3FF699
:1042B00000AE2BE6374B1B78022B7FF4D1ADDFF835
:1042C000248198F80030042B7FF4CAAD3C4B296858
:1042D0000A911B780A991160002B40F0D2844FF4A8
:1042E000FA6004F0CFFCBBE52B680D930D9B2B68A7
:1042F0000F930F9B9B1AB3F57A7F3FF6D3AD08E679
:1043000003680E930E9B2F492F48336002F03CF850
:104310002D491C4802F096F8FEF7E2F8FEF7A0FBE4
:1043200021783368B5E52B68284A1193119B1168F1
:1043300027485B1A092B40F23681264903681293FD
:104340000B78129810600BB1013B0B70224A137866
:104350000BB1013B1370214A1378002B40F0E1822E
:10436000DFF8808098F80030042B00F02D851C4B7E
:104370001A78012A00F01E812378002B7FF499AD72
:104380003B78CAE5A0AFFF1FB4B3FF1F00AFFF1F0C
:1043900021B4FF1F50AFFF1F045B0200B8B2FF1F24
:1043A00094AFFF1F185B02002C5B020064B1FF1F7B
:1043B0002296FF1F7A9DFF1FFCB4FF1F6C9BFF1FFF
:1043C0000296FF1F2096FF1FF4B0FF1F64B2FF1F6D
:1043D00050B8FF1F24B0FF1F60B2FF1F14AFFF1FB4
:1043E000D1B4FF1F58B1FF1FA64801F087FE037824
:1043F0004E2B7FF485AEA34801F080FE4378442B1A
:104400007FF47EAE9F4801F081FE9E4801F07EFE63
:10441000C37A9C48422B0CBF0227002701F076FE8E
:10442000C37A432B00F09E84964801F06FFE837A96
:104430009448502B08BF042701F068FE837A914806
:10444000572B08BF052701F061FE867A442E00F045
:10445000788407F10A031422082607F1010916FBE4
:10446000072B0693DAB25FFA89F305920793BA46EF
:104470000DF15306002505E001F048FE435D06F806
:10448000013F01357F4801F03DFE85427D48F3DB69
:104490007C4801F03BFE03787A481D0201F036FEAD
:1044A0004378794A2B4422F81A300DF155090BF163
:1044B00004055E464FF0000819F8013F7348314685
:1044C0001A46013603EB082801F0C4FCB542F3D1CB
:1044D0000BF108060DF159094FF0000B19F8013FD7
:1044E0006A4829461A46013503EB0B2B01F0B2FC52
:1044F000AE42F3D141466648664D01F0E5FE5946AD
:10450000634801F0E5FE059B0393634A0192002393
:104510000821CAEBCA06029100934FF6FE725C496D
:1045200019A801F0E5FE05EB86051DAB93E8030035
:104530009DF868309DF869602B711B9B6E71AB60B4
:104540009DF87060554ABDF87CE02E7305F11003AC
:1045500083E803009DF87E609DF87F30A5F818E0A1
:1045600012F80A200699EB76AE76484801F074FC02
:104570003846FEF711F9079D494B4A482A4655210E
:1045800001F068F9474801F00FFB4FF4FA6004F0BE
:1045900079FB2A46444B4348552101F05BF94148D9
:1045A00001F002FBACE5414B1A78012A7FF481ACA3
:1045B000DFF8FC8098F800203D4E511E00200229B3
:1045C000187000F296833B490B68834204DD013B7F
:1045D0000B60002B00F08A83032A3FF6CDAEFCF778
:1045E00065FAC9E6344F3B78022B314B1B7800F05B
:1045F0001D82002B7FF4F7AC01231370FEF7BAFA8B
:10460000284801F0D1FAEEE4294B1B78002B40F04A
:104610009281294F3B785A1E012A00F28E81274A47
:104620001378042B84BF03F1FF331370FCF748F8B1
:104630002378002B7FF42EAE3B787EE11C4B1B7859
:10464000002B40F084811C4F3B785A1E012A00F257
:1046500080811A4A13781D2B9CBF01331370FCF71D
:104660002FF82378002B7FF4A9AD3B7871E1124F2E
:104670003B78032B3FF6B7ACDFE813F0F101CE0136
:10468000CE01E601B4B3FF1F08B1FF1FFCB4FF1F4A
:1046900028B1FF1F30B0FF1FA0B4FF1F7CAFFF1F6A
:1046A000F45A020094AFFF1FFC5A0200D1B4FF1F5E
:1046B00058B1FF1FE4AEFF1F21B4FF1F6D9BFF1F0A
:1046C000A94801F05BFDA94901F0D0FC0521A848EB
:1046D00001F006FD030618D40521A54801F000FDF0
:1046E000C70740F18283A34B1B78012B00F0858321
:1046F000022B0AD1A04B1B78023B012B03D99F4B05
:104700001B68D80701D5FEF763FE0521984801F024
:10471000E7FCC0F3C71001287FF402AD05219448DF
:1047200001F0DEFCC10740F13984924B1B78022B6B
:1047300000F07983012B7FF4F3AC8F4B1B78032BB4
:1047400000F04884042B7FF4EBAC8D4B1B78022BDC
:104750007FF4E6AC894B1B68DB073FF5E1ACFEF765
:1047600037FEDDE4804801F009FD804901F080FC5E
:104770007F4801F04FFC01F0A5FD7D4801F04AFCA7
:1047800001F0A4FD00217A4801F0AAFC58B9794F44
:104790003A78012A00F05C83022A00F04A83032A57
:1047A00001D1FBF72FFF0021714801F099FC02288D
:1047B00000F0BD8100216E4801F092FC04287FF4D6
:1047C000A7AC704F01253E462946694801F088FC98
:1047D0000135052D06F8010BF6D16B4B9B79012BAA
:1047E00000F0D983FB78B87803EB002006F0DEFEFA
:1047F0006649054607F0EAF8002840F04583644B17
:104800001D607878634D06F0CDFE634906F0D6FF53
:104810000646387806F0CAFE0146304606F012FE1B
:1048200023782860002B7FF473AC524B1B78022B4B
:104830003FF66EACFFF7CAF96AE44B4801F09EFC04
:10484000564901F071FC554801F068FC002840F021
:104850004081524801F062FC002840F023814F481B
:1048600001F05CFC002840F001814C4801F056FC4E
:1048700000283FF43FAC494801F040FC0378532B3B
:104880007FF438AC454801F039FC43784C2B7FF479
:1048900031AC434E0025414801F038FC435D06F839
:1048A000013F0135042DF6D124E42F4801F066FCC8
:1048B0003C4901F0EBFB3B4801F0DCFB0378442B67
:1048C00000F04381374801F0D5FB0378492B7FF492
:1048D00009AC344801F0CEFB4378532B7FF402AC93
:1048E000304801F0CBFB05792E4801F0C7FB214B86
:1048F0001B78002B7FF4F6AB407900EB052006F027
:1049000055FE294906F0A6FE284906F057FF28491A
:1049100006F0A0FE274906F095FDFFF73BF9FFF7EB
:10492000E1BB013BD9B2117000297FF419AD17200A
:1049300004F068F914E50F4B1B78032B7FF453AB9D
:10494000FDF7FEFB2378002B3FF44DABA2E4094BAF
:104950001B78032B7FF447ABFDF7DEFB2378002B9E
:104960003FF441AB2AE400BFA0AFFF1FECAEFF1F36
:10497000E8AEFF1F21B4FF1F58B1FF1FCCB4FF1FCB
:1049800050AFFF1F10B4FF1F7CAFFF1F0000344368
:10499000D4B4FF1F9CB4FF1F0000C842B4B3FF1F74
:1049A0001BB1FF1F3CAFFF1F9A99993F00C07F4486
:1049B000CDCC4C40CDCC4C3FB94B1A78012A00F0FD
:1049C0000782022A7FF4FCAADFF8F88298F8003008
:1049D000042B00F00681002B3FF403AB052B3FF4C2
:1049E00000AB0B78002B7FF4F3AA012A40F09681EC
:1049F00098F80010AB4B4A1ED2B2012A1B7840F245
:104A00002383032900F01983022A00F26782022B14
:104A10007FF4E5AAFFF7E5BAA34AA24B12781A7011
:104A200000232370FEF7A6F8FFF7DDBA002B7FF412
:104A3000DAAA002201233A702370FEF79BF89B4804
:104A400001F0B2F8FFF7CFBA974A964B12780021DF
:104A500009321A702170FEF78DF8FFF7C4BA924B35
:104A60001B783B70FEF786F8FFF7BDBA904801F05F
:104A700045FB0378532B7FF4F8AE8D4801F03EFBE5
:104A80004378482B7FF4F1AE8A4E0025884801F028
:104A90003DFB435D06F8013B0135042DF6D1FDF7E2
:104AA00081FFE2E6824801F029FB0378412B7FF485
:104AB000D6AE7F4801F022FB4378492B7FF4CFAE7E
:104AC0007B4801F023FB007800B10120FDF796FF41
:104AD000C5E6774801F012FB0378442B7FF4B9AEAA
:104AE000734801F00BFB4378422B7FF4B2AE23787E
:104AF000002B7FF4AEAE6A4B1B78032B7FF4A9AE7C
:104B0000684B1B780E2B7FF4A4AE694801F0FEFAC7
:104B100069490278694807F0C5FE684B634802227C
:104B20000A2100F097FE614801F03EF891E65C4FE3
:104B30003B78012B00F0BF81022B00F0AE81032BEC
:104B40007FF438AEFBF75EFD34E65D4801F092FA83
:104B50004378422B7FF4B6AE2378002B7FF4B2AEBD
:104B60004F4B1B78013B012B3FF6ACAE554B1B78EE
:104B7000002B7FF4A7AE524801F080FA0378002B97
:104B800000F0AD821A3BDB004D486FF03D0293FB15
:104B9000F2F20932059201F0ADFA0A38059A0428BA
:104BA00033D8DFE800F0605244362500032A7FF452
:104BB000F1A945480368002B40F36A82013B03607A
:104BC000424D002B00F072822868002801DD013878
:104BD000286002297FF4E1A9032A3FF6E0A9FFF744
:104BE000DCB93B4B1B68DD073FF5EEA9FFF7F9B9D0
:104BF000002A00F091823749304807F053FE2F4BCE
:104C00002A480422402100F025FE284800F0CCFF6D
:104C100058E6002A00F079822F49284807F042FE22
:104C2000264B224803225F2100F014FEEDE7002A04
:104C300000F079822949214807F034FE1F4B1B48B8
:104C40000322402100F006FEDFE7002A00F0728216
:104C500023491A4807F026FE184B144802225F2108
:104C600000F0F8FDD1E7002A00F048821D49134802
:104C700007F018FE114B0D480222402100F0EAFD1A
:104C8000C3E7DF2201210F20FBF716FCFFF727BB4C
:104C9000FDF760FC144B38781870FFF7E3B900BFDC
:104CA00021B4FF1F50AFFF1F64B1FF1F94AFFF1F60
:104CB000B4B3FF1F18B1FF1FE05A0200B8B2FF1FC4
:104CC0003CAFFF1F58B1FF1FE4AEFF1F60B1FF1FD5
:104CD000CCB4FF1FD85A0200C85A0200B85A0200CA
:104CE000A85A0200985A02001D96FF1FFEF770FB9B
:104CF0003278042A7FF470ACBA4923780A6801320A
:104D00000A60FFF73ABBDFF8E08298F80030042B26
:104D10007FF42BA9FBF7CAFEFFF727B9022A7FF41D
:104D200062A9B14A1278013A022A7FF65AA9002BE9
:104D30007FF459A9AD4B1B68D9077FF554A9FFF73C
:104D400050B9AB4801F0E2F9C37A492B7FF481AB4B
:104D500010230693062705930723B346BA46079305
:104D6000FFF786BBA24801F0D1F9037BA048412B95
:104D700008BF012701F0CAF9037B422B08BF0327B4
:104D8000FFF752BB9B4D19781EE7022A7FF402A958
:104D9000984D286800287FF700A9924E3368013BA0
:104DA000336014E7911E012940F2A480042A7FF4A5
:104DB000F1A8904D2868002840F36D81894E19783C
:104DC00033680133336002E7FBF770FEFFF7CFBAB9
:104DD000DFF8148298F80030032B00F0AD80042B2C
:104DE00000F09E8098F80030F5E50521824801F03A
:104DF00077F9C6067FF577AC87E47B4B1B78032BEE
:104E000000F00F81042B00F00581013B012B3FF6E0
:104E10007CAC7A4B1A78012A3FF475AC1B78022BD4
:104E20007FF473AC6FE4704B1B78042B7FF478A98C
:104E300090E46D4B1B78023B012B40F226816B4BBB
:104E40001B68DD077FF5AFACFEF7C2FA3A78A6E43F
:104E5000DFF8948198F80030032B00F0A880042B31
:104E600000F08780013BDBB2012B3FD8634B1A78FF
:104E7000012A00F025811B78022B00F01C813A7872
:104E8000022A7FF48CACDAE729465D485D4D06F0D6
:104E9000D7FA00F100402860B3E4534B1B78042B91
:104EA0007FF488AC514B1B68DA073FF583ACFEF703
:104EB0008FFA3B7843E64C4D2B78032B00F0D380E0
:104EC000042BF6D14D4B1B78022BF2D1474B1B68BC
:104ED000D907EED4FEF77CFA3B782DE604297FF45F
:104EE0007EA8022B3FF426AFFFF779B8022BC6D875
:104EF000424BC0E73B48016800297FF74BA83D4D76
:104F00002E68002E7FF73FAF0139016000297FF442
:104F10003AAF0593FDF796F998F80020059B45E711
:104F2000364B1B78022B7FF45DAF304B1B68DE07DE
:104F30003FF558AFFFF755B8304B1B78012B7FF486
:104F400051AFF2E701232B70FDF714FEFFF74BB8CA
:104F50002D4E2E4D31784B1EE85C012879D1EA5454
:104F600009312B4800F078FF3078FCF757FFFFF746
:104F70003AB8224B1B78022B81D11C4B1B68DE07F1
:104F80007FF57DAFFEF724FA3A78012A7FF404AC6E
:104F900098F8003066E7FBF775FA23E40521164818
:104FA00001F09EF8C2067FF5C0ABFFF7B9B8134B0E
:104FB0001A78012A7FF45FAF0C4A1268D2077FF596
:104FC0005AAFFEF705FA3A78012A7FF4E5AB98F874
:104FD000003044E7094B1B78012B7FF4A1A8FFF7B1
:104FE000B9BB00BFE4AEFF1F58B1FF1FCCB4FF1F19
:104FF000B4B3FF1F60B1FF1FE8AEFF1F50AFFF1F2C
:105000000000B443D4B4FF1F64B1FF1F7CAFFF1F87
:10501000FCB4FF1F4B4B1B78022B7FF476ABFFF7E2
:105020006EBB484B1A78012A7FF4F8AE464A1268E4
:10503000D5077FF5F3AEFFF766BB012B30D0022A10
:105040007FF6E5ACFEF7CBBF012B7FF4DDACFEF7BE
:10505000C8BF01220846EA54FDF7DCFA31780D4456
:1050600015F8012C7CE7374B1B78012B7FF421AF1F
:10507000354B1B68D8073FF51CAFFEF7A9F93B7805
:10508000012B7FF459AD2B781AE7FEF7A1F9F6E66C
:105090002E4D286899E519789BE50133FFF7C7B8CD
:1050A00029480068C0073EF59CAFADE4052228689A
:1050B00088F8002089E5FEF78BF93A78FFF76CBB9A
:1050C0000593FEF785F93A78012A7FF465AB98F8E5
:1050D0000020013A022A3FF666AB059BCBE61C484E
:1050E00001F008F80A3804283FF68FADDFE800F039
:1050F00006221B0D1400DFF8748073E6154A164B68
:1051000092E8030018609980B4E5144A124B92E8C3
:1051100003001860998083E5114A0F4B92E8030061
:10512000186099806BE50F4A0B4B92E803001860FA
:10513000998083E50C4A084B92E803001860998037
:105140008AE500BF50AFFF1FCCB4FF1F60B1FF1F47
:105150003CAFFF1F905A0200B8B2FF1FC05A0200B6
:10516000D05A0200B05A0200A05A020058B1FF1FE4
:105170002DE9F047664E674F674D0022114686B015
:105180003046FBF7DBF90024644B336007F128025B
:105190000421384686F82640FBF7D0F96048614B79
:1051A00028604FF0010E4FF4803005F118023B608B
:1051B000214623462C72EC6085F809E02A61B8612B
:1051C000F861386278622C4600E0226942F82310C8
:1051D0006A7A514801339A42F7DC534B1A680AB98C
:1051E00094E01A465369002BFBD155614FF000083B
:1051F000DFF8A8A14D4B4848C5F81480A5F80480F5
:10520000A5F8068085F80A80DFF894912B6001F0FC
:10521000BDFA50468AE8C0008AF808808AF80980FA
:10522000CAF80C808AF8108002F01AFD404A414901
:10523000414E424C504606F06DFD4846C9F800709C
:10524000C9F8045089F8088089F80980C9F80C80E9
:1052500089F8108002F004FD354A3649384D484639
:1052600006F058FD374B1A680292029F1A680392A3
:10527000039A19680491049819680591324B3349CF
:105280002F600325059F019500951A600860304B3B
:10529000304A31493760314800F098F8304B314896
:1052A0001D7006210B22052504269D70D9701A71E8
:1052B0005E7000F04DFF2C4800F0A2FE2B4800F07D
:1052C000FBFF2B4A2B492C4800F0F8FF2B4800F03D
:1052D000F3FF04F1C40520461C3400F0FBFFA54297
:1052E000F9D1274800F0E8FF2649274801F03CF8AB
:1052F000264800F0E1FF264A2049264801F064F8DC
:10530000254800F0D9FF06B0BDE8F08718606DE7CA
:1053100030B1FF1F30B4FF1F68B1FF1F38630200B8
:10532000C456020020630200F8B7FF1F2C6302007E
:10533000FC95FF1F7904000010AFFF1F30B0FF1F66
:105340005CB1FF1F50B8FF1F64B2FF1FB4B4FF1F52
:105350000496FF1F3C9AFF1F1496FF1F88B1FF1F82
:1053600094AFFF1FA0AFFF1FE8AEFF1F14B4FF1FD5
:10537000D564714000A2130028B1FF1FA8B4FF1F1D
:1053800000AFFF1F0096FF1FF4B0FF1FB4B3FF1F55
:10539000789DFF1F1CAFFF1F3CAFFF1F54AFFF1FC7
:1053A00068AFFF1F0022027002724272704700BF96
:1053B00008B5084603F02CFC08BD00BF084611469E
:1053C00003F020BC0846114603F030BC2DE9F84F2D
:1053D00005462C4604309A460F4693469DF8289081
:1053E0009DF82C80FFF7DEFF124B44F8383B05F1A7
:1053F000B00620460C34FFF7D5FFB442F9D10023A4
:105400000A214FF4FA7285F8C49085F8C580C5F872
:10541000BCB0C5F8C0A0C5F8B870C5F8C810C5F8CC
:10542000CC20C5F8D430C5F8B43085F8D030284643
:10543000BDE8F88F485B02002DE9F84F90F8C420D2
:10544000834602B3DFF84C91002407E003F0EEFB43
:1054500001349BF8C420E4B2A24214D9DBF8001056
:10546000DBF8BC200D68125D4D454FF0020110467F
:10547000ECD0114658460222A84701349BF8C420BC
:10548000E4B2A242EAD89BF8C520002A7DD0DFF81A
:105490000491DFF804A13E4D0026DBF80010DBF894
:1054A000C0200C68905D4C456AD1012103F0BEFB21
:1054B000DBF80010DBF8C0204C68905D54455AD1F1
:1054C000002103F09FFB9BF8C4204AB3012303FA99
:1054D00006F76FEA0708002408E00A693A430A6100
:1054E00001349BF8C420E4B2A24219D9DBF80020B1
:1054F000DBF8BC109268095DAA4208462ED103F081
:1055000087FB0BEB84010A460028E6D0096901EA13
:105510000801116101349BF8C420E4B2A242E5D82D
:10552000DBF80010DBF8C0204C68905D54451DD1BD
:10553000012103F067FBDBF80010DBF8C0200C68EA
:10554000905D4C450DD1002103F070FB01369BF8B6
:10555000C520F6B2B242A0D8BDE8F88F58469047B1
:10556000CFE7014600225846A047EFE70146012257
:105570005846A047DFE7014600225846A047A2E769
:10558000014601225846A04792E7BDE8F88F00BFC8
:10559000B1530000C5530000BD53000090F8400017
:1055A000704700BFC0F8CC10704700BFC0F8D410DF
:1055B000704700BF01EB410300EB830310B490F888
:1055C000D04083F84020012283F841202CB1D0F84C
:1055D000D43003B149B110BC7047D0F8D420002AB0
:1055E000F9D093F8380010BC104790F8380010BC80
:1055F000184700BF30B501EB410300EB83030446BD
:1056000093F84000002583B083F84150032807D861
:10561000DFE800F01B08130220460022FFF7CAFF54
:1056200003B030BD124BD4F8B0501B680193019BFE
:10563000D4F8CC005B1B834214D8002AF0D120465A
:105640000322FFF7B7FF03B030BD002AE8D00122E4
:105650002046FFF7AFFF064B1B680093009BC4F882
:10566000B030DDE720460222FFF7A4FFD8E700BFF5
:1056700050B8FF1F2DE9F04F034683B0804600F17C
:1056800078094FF0FF3193F8402022B983F8382091
:10569000D96383F841200C334B45F4D190F8C430E2
:1056A000002B37D0002290F8C5B001920646BBF11E
:1056B000000F29D0019B002503F1040A56F82A3077
:1056C000EB4003F00104019BE2B20BFB035E3046AA
:1056D0000023C76BBE45D9B200F10C0003F10103F2
:1056E00025D00A2BF5D14CB13446002394F838006C
:1056F000D9B20C3428B301330A2BF7D10135EDB2FE
:10570000AB45DBD896F8C430019F0137FAB293421B
:105710000192CCD8002098F8413008F10C08002BF9
:1057200018BF0120C845F6D103B0BDE8F08F304660
:10573000FFF760FF013596F8C5B0EDB2AB45BDD8B7
:10574000E0E7D6F8B84003EB430306EB830314F815
:105750000E4083F8384083F84000C3F83CE0304600
:10576000FFF748FF013596F8C5B0EDB2AB45A5D8B7
:10577000C8E700BF30B5174DD0F8B4102B68D0F88B
:10578000C82083B004460093009B5B1A93424FF0FD
:10579000010180F8D01004D8002084F8D00003B0B4
:1057A00030BDFFF749FE2046FFF764FF2B680193E9
:1057B000019BC4F8B4300028EED094F84130002B9F
:1057C000EAD094F84030012BE6D194F8380003B0C9
:1057D00030BD00BF50B8FF1F1848F0B503EB83037E
:1057E0004E1DDFF86CE00344F6B20846802717FB35
:1057F00002040130C0B213F8015B0EF80450864277
:10580000F5D10F480478B44288BF06700D480A31BC
:105810000478C9B28C4238BF01700B49531C087818
:10582000D200D2B2904288BF0A70084ADB001178D9
:10583000DBB2994238BF1370F0BD00BF5C5B020061
:10584000D9B4FF1FDAB4FF1FDBB4FF1FDCB4FF1FA6
:10585000449EFF1F2DE9F04180460C4615465F1E11
:105860000AE00634E4B2FFF7B7FF792C02D901351C
:10587000EDB20024072D07D817F8016F2A462146FC
:1058800040463346002EECD1BDE8F081080612D424
:105890003F2A10D810B47BB9D3080F4C01EBC311C9
:1058A000D243635C02F00702012000FA02F223EA0D
:1058B0000202625410BC7047D308074C01EBC311BD
:1058C000D243635C02F00702012000FA02F21A439D
:1058D000625410BCEFE700BF449EFF1F2DE9F04F5C
:1058E00089B09DF84C409DF84850069401959DF86C
:1058F00050B0029103920593002C5AD0069B019A56
:105900000299013BDBB20A440133824607920493B9
:10591000D7B24FF00009019B5FFA89F813B3039BDC
:10592000059A029C4FEAD80508F007069844019BA7
:1059300005FB0325012303FA06F65FFA88F803E066
:105940000134E4B2BC420DD015F8013B3342F7D02C
:10595000214601345B4642465046E4B2FFF796FFCB
:10596000BC42F1D1049B09F101099945D3D1039CB3
:105970001249069B08782344029CA042DAB29DF8A3
:105980001C3002D99DF8080008700D49039C087866
:10599000984238BF0B700B4B1978A14284BF214647
:1059A0001970094B1978914238BF1A7009B0BDE8D7
:1059B000F08F2B460B440793D9E700BFD9B4FF1FE4
:1059C000DAB4FF1FDBB4FF1FDCB4FF1F2DE9F84F73
:1059D00003EB010A51458B4691469DF828609DF8DE
:1059E0002C8030DA074616440D46B145B8BF4C4608
:1059F00009DA22460134434629463846E4B2FFF725
:105A000045FFA642F5DC0135EDB25545EDDB0F4B08
:105A10001A785A455FFA8AFAF6B201D983F800B0CB
:105A20000B4B1A78524538BF83F800A0094B1A78FF
:105A30004A4588BF83F80090074B1A78B24238BFB6
:105A40001E70BDE8F88F1644E1E700BFD9B4FF1F10
:105A5000DAB4FF1FDBB4FF1FDCB4FF1F38B5044608
:105A60000D468078002103F0CDF82A466178207831
:105A7000BDE8384003F0E0B810B5044601210078D5
:105A800003F0D4F86078012103F0D0F8A078012168
:105A900003F0CCF8E078012103F0C8F82079012167
:105AA00003F0C4F894F90400002803DDC0B200211B
:105AB00003F0A8F80021E07803F0A4F84FF4FA709E
:105AC00003F0E0F80121E07803F09CF8A3212046E0
:105AD000FFF7C4FFA0212046FFF7C0FFC0212046EA
