:1000000000800020BD010000018E0000C58D0000B1
:10001000C58D0000C58D0000C58D0000C58D000098
:10002000C58D0000C58D0000C58D0000018E00004B
:10003000018E0000C58D0000018E0000B58D00000E
:10004000018E0000018E0000018E0000018E000074
:10005000018E0000018E0000018E0000018E000064
:10006000018E0000018E0000018E0000018E000054
:10007000018E0000018E0000018E0000018E000044
:10008000018E0000018E0000018E0000018E000034
:10009000018E0000018E0000018E0000018E000024
:1000A000E9860000018E0000018E0000018E000034
:1000B000018E0000018E0000018E0000018E000004
:1000C000018E0000018E0000018E0000018E0000F4
:1000D000018E0000018E0000018E0000018E0000E4
:1000E000018E0000018E0000018E0000018E0000D4
:1000F000018E00009D9A0000018E000089B600006C
:10010000018E000015BC0000018E0000018E000071
:10011000018E0000018E0000018E0000018E0000A3
:10012000018E0000018E0000018E0000018E000093
:10013000018E0000018E0000018E0000895D00002C
:10014000018E0000018E0000018E0000018E000073
:1001500041AD000059AD000071AD000089AD000057
:10016000018E0000899D0000018E0000018E0000BC
:10017000018E0000018E0000018E0000018E000043
:10018000018E0000018E0000018E0000018E000033
:10019000018E0000018E0000018E0000018E000023
:1001A000018E0000018E0000018E0000018E000013
:1001B000018E0000018E000091AA0000574B4CF206
:1001C000205210B51A804DF628121A8000BF00BFC9
:1001D00008F01AFE524B4FF010621A60514A9A60B2
:1001E000514ADA60A3F53043203B1A6812F480725A
:1001F00004D14E490A604FF4A8521A604C4B1A7849
:10020000110703D51A7842F008021A70494B4A4C7C
:100210004A482A221A704A4A00239918A14203D256
:10022000195899500433F8E7464B474900228B424E
:1002300002D243F8042BFAE74448454900235A58B0
:100240001A500433B3F5DE7FF9D1424B424A802184
:1002500003F8011B9342FBD1404B3C4A1A60404BD0
:100260000A221A70A3F5805324225A70A0221A7011
:100270009A799207FCD59A79D406FCD4394A9379B5
:1002800003F00C03082B374BF9D103221A714022DB
:100290005A719A799006FCD5324A9179314B4906C8
:1002A000FBD5314A314911600221516020221A7078
:1002B0009A7902F00C020C2AFAD12D4B2D4A1A60C1
:1002C0002D4B2E4A1A6000225A60072243F8042C54
:1002D0002B4AC3F80C2D62B609F076F8134B1B6855
:1002E000DA0705D5274808F089FF274B274A1A6007
:1002F000274B1B785B0609D5234C244A236893427D
:1003000004D1204808F07AFF002323600DF0E4F8C0
:1003100008F080FD0AF036FEFEE700BF0E20054023
:1003200030800440823F04000100002B14D00340C1
:1003300002D0074000E0074044B4FF1F808603005E
:100340006095FF1F44B4FF1F54CDFF1F0090FF1F97
:100350000000000000E400E05FE400E008ED00E0E1
:100360000050064000400640448004400000030165
:1003700004800440C010050014E000E0FF76010096
:1003800000002020C4A8CE581CE00340A5C3945A06
:1003900000F00740FFFFFFFFFFFFFFFFFFFFFFFF32
:1003A000FFFFFFFFFFFFFFFFFFFFFFFFFFFFFFFF5D
:1003B000FFFFFFFFFFFFFFFFFFFFFFFFFFFFFFFF4D
:1003C000FFFFFFFFFFFFFFFFFFFFFFFFFFFFFFFF3D
:1003D000FFFFFFFFFFFFFFFFFFFFFFFFFFFFFFFF2D
:1003E000FFFFFFFFFFFFFFFFFFFFFFFFFFFFFFFF1D
:1003F000FFFFFFFFFFFFFFFFFFFFFFFFFFFFFFFF0D
:10040000FFFFFFFFFFFFFFFFFFFFFFFFDEF9FFFF23
:1004100010B5054C237833B9044B13B10448AFF33E
:1004200000800123237010BD44B4FF1F00000000B2
:100430007886030008B5064B1BB106480649AFF3A2
:1004400000800648036813B1054B03B1984708BD07
:10045000000000007886030048B4FF1F44B4FF1F6B
:10046000000000000122014B1A70704744B9FF1FC1
:1004700038B504460D4608460DF0DAFE02462368FC
:100480005B68204629469847054620460AF06AFDE3
:10049000284438BD0F4B0360417202610023037290
:1004A000C36039B11946026942F823100133427A18
:1004B0009A42F8DC084B1A680AB9186004E05369DC
:1004C0000BB11A46FBE75061002343618380C38070
:1004D000704700BFB077030054C5FF1F08B5304B0D
:1004E0001B78012B06D10820012108F097FE23225A
:1004F0002C4B1A702C4B1B78013B042B1CD8DFE8CB
:1005000003F003080D1217002848294906F01CF8CB
:1005100012E02648274906F017F80DE0234826493F
:1005200006F012F808E02148244906F00DF803E02F
:100530001E48234906F008F8224B1B78012B2ED1C8
:10054000214B1B78012B2AD1204B1B78022B26D163
:100550001F4B1B78013B052B21D8DFE803F0030874
:100560000D12171C1B481C4906F040F808BD19481D
:100570001A4906F03BF808BD1648194906F036F846
:1005800008BD1448174906F031F808BD114816494E
:1005900006F02CF808BD0F48144906F027F808BDEE
:1005A0008097FF1FA0B5FF1F9D96FF1F20B8FF1F5C
:1005B00010130100146C0100980C02009C700200E2
:1005C000A011030024B5FF1F68B8FF1F08A0FF1F7C
:1005D0000DA2FF1F60B9FF1FB8770300C0770300AB
:1005E000CC770300D8770300E4770300F0770300AB
:1005F00038B5324C32480621227804F0D7FF2078F3
:100600000CF056FA2F490CF05FFB04462E490CF013
:1006100063FC00284CD120462C490CF03FFC0028FC
:100620003CD120464FF08F410CF09AFA0CF05EFC62
:10063000274B9861204624490CF04EFC30B92046E7
:1006400022490CF02BFC20B1204C02E01E4C00E0B3
:100650001D4C1F4D20464FF08F410CF081FA0CF0DD
:1006600045FCE86100232B626B621A481A4905F0C9
:100670006BFF1A4C114B1B78642202FB03F2184BE0
:1006800083FB02122046174912110DF0D3FC1648C5
:1006900046210522234604F0DDFC38BD134A0C4BED
:1006A0009A61204608490CF017FC0028CCD0CFE70F
:1006B0000F4A074B9A61044CCBE700BF9C96FF1F83
:1006C00020BCFF1F0000C84200FEFF4600FEFFC620
:1006D00048B5FF1F20B8FF1F10130100ECB5FF1F26
:1006E0001F85EB51FC77030098B5FF1F00000180C8
:1006F0000000FF7F08B5054B1B78312B02D8013372
:10070000024A1370FFF774FF08BD00BF9C96FF1FDD
:1007100008B5054B1B78042B02D9013B024A137024
:10072000FFF766FF08BD00BF9C96FF1F70B5012450
:10073000274B1C70274D28460021224604F036FF27
:100740000026254B1E7028462146324604F02EFF17
:10075000224B1C7028460221224604F027FF204B22
:100760001C7028460921224604F020FF1D4B1C70F6
:1007700028466321224604F019FF1B4B1E702846B1
:100780000521324604F012FF1E22184B1A7028462B
:10079000062104F00BFF164B1E7028460821324636
:1007A00004F004FF134B1C7028466221224604F01B
:1007B000FDFE11494B1E0631324603F8012F8B42D4
:1007C000FBD10022044B1A700122014B1A7070BD3C
:1007D000049CFF1F20BCFF1F24B5FF1F68B8FF1F2C
:1007E0000DA2FF1F08A0FF1F0CA2FF1F9C96FF1F5A
:1007F0008097FF1F9D96FF1FE4BBFF1F30B585B09C
:100800000B4C802300934023019301250295204641
:1008100000210A46074B04F061FC204605212A46C8
:10082000054B04F017FC204604F06EFD05B030BD0A
:1008300098B5FF1F089CFF1F087803001B4B1B780F
:10084000013B052B31D8DFE803F0030A111A212AF6
:10085000174B184A92E80300186019717047144B3F
:10086000154A92E80300186099807047104B134AAC
:1008700092E8030018609980090C997170470C4B3D
:100880000F4A92E8030083E803007047084B0D4AC3
:1008900092E8030018609980090C99717047044B25
:1008A000094A92E8030083E8030070470DA2FF1F86
:1008B00008B5FF1F1878030020780300287803008C
:1008C00030780300387803004078030008B5554BB2
:1008D0001B78012B02D0022B6DD09EE0524B1B786F
:1008E000022B2FD0032B5FD0012B40F096804F4876
:1008F0003F2101224E4B04F0ADFB4E4B1B78032BE6
:1009000000F28B80DFE803F00209101747483F210F
:100910000522494B04F09EFB7FE044483F2105221D
:10092000464B04F097FB78E040483F210522444BBA
:1009300004F090FB71E03D483F210522414B04F05B
:1009400089FB6AE039483F2101223F4B04F082FBDA
:10095000384B1B78042B60D8DFE803F0030A11182A
:100960001F0032483F210522334B04F073FB54E053
:100970002E483F210522314B04F06CFB4DE02B4803
:100980003F210522314B04F065FB46E027483F211B
:1009900005222B4B04F05EFB3FE024483F2105225B
:1009A0002B4B04F057FB38E020483F210122294B14
:1009B00004F050FB31E01F4B1B78052B2DD8DFE8EE
:1009C00003F0030A11181F261848032106221A4BA8
:1009D00004F040FB21E01548032106221E4B04F0E1
:1009E00039FB1AE01148032106221C4B04F032FBAC
:1009F00013E00E4803210622194B04F02BFB0CE0F8
:100A00000A48032106220F4B04F024FB05E00748A7
:100A100003210622134B04F01DFB044804F074FC70
:100A200008BD00BF24B5FF1F68B8FF1F98B5FF1FA2
:100A30004878030018B8FF1F547803005C7803005F
:100A40006878030074780300807803008C780300D2
:100A500098780300A4780300B0780300BC78030002
:100A6000C8780300D47803002DE9F04F8DB05D4BBA
:100A70001E6810230093002301935B4805210A465A
:100A8000382304F077FB594B1B78022B42D1584B8B
:100A90001B78032B00F20683564A1268564C84FBDF
:100AA00002041444D117C1EB6414A4EB041502EB47
:100AB0008505F9E2514A13680593059C504B1B6864
:100AC000E41A5049A1FB0404A40912680692069D89
:100AD000ED1A4FF47A7202FB14554B4AA2FB05152E
:100AE000ED08E4E2494D85FB0623F617C6EBA303A8
:100AF00003EB83035B00434C84FB0304DA17C2EB74
:100B0000A414434A02FB043385FB0315DB17C3EB34
:100B1000A50565E1012B40F0F3823E4B1B78022BCB
:100B20002ED1334B1B78042B40F01383334A1368C8
:100B30000793079C324B1B68E41A3249A1FB04045B
:100B4000A40912680892089DED1A4FF47A7202FB0C
:100B500014552D4AA2FB0515ED08CBE2214B1B686D
:100B6000284C84FB0324DA17C2EBA414284A02FBA6
:100B70000433264D85FB0305DB17C3EBA5052FE1E9
:100B80001C4B1B68244A1268C3EB02091A4C84FBF5
:100B900003141C44DA17C2EB6414A4EB041503EB32
:100BA0008505A7E2134B1B68002B39DA0823009355
:100BB0000C230193012302930B4805210A46174B8E
:100BC00004F08CFA0B4B1A6853420B4C84FB030461
:100BD0001C44DB17C3EB6414A4EB0415C2EB8505BE
:100BE00034E000BF40B9FF1F98B5FF1F24B5FF1FB9
:100BF00018B8FF1FF8B6FF1F8988888844C0FF1FF8
:100C0000D4BBFF1FD34D6210CDCCCCCC67666666DB
:100C100018FCFFFF68B8FF1F64B8FF1F7097FF1F25
:100C20006A4B83FB0413E217C2EBA30303EB4303FA
:100C30000C220092102201920122029264480521A6
:100C40000A46644E06EBC30304F048FA604EDFF830
:100C500084A15E4B83FB0432E317C3EBA20303EBD7
:100C60008303A4EB430404EB44034FF00C08CDF8DA
:100C7000008010240194012702973046122105229A
:100C80000AEBC30304F02AFA0323009301940297AA
:100C900030461F2105220AF1F00304F01FFA4B48E9
:100CA00080FB050BEB17C3EBAB0B0BEB4B03CDF84A
:100CB0000080019402973046232105220AEBC303EA
:100CC00004F00CFA0BEB8B0BA5EB4B0505EB450386
:100CD000CDF80080019402973046302105220AEBBE
:100CE000C30304F0FBF9CDF80080002401943046E2
:100CF00014211D22262304F03DFA30462146042209
:100D0000354B04F0A7F9A4F1773484FB09144C4463
:100D10004FEAE973C3EB6414A4EB041509EB8505F2
:100D2000DFF8B890294A82FB042AE317C3EBAA0A2A
:100D30004FF0080BCDF800B0CDF804800297304694
:100D400014211D2209EB0A1304F0C8F90AEB8A0AE0
:100D5000A4EB4A03CDF800B0CDF8048002973046EA
:100D60001D210A4609EB031304F0B8F9022300938E
:100D7000CDF804800297304626211D2209F1A003F8
:100D800004F0ACF9114B83FB053AEB17C3EBAA0A4D
:100D9000CDF800B0CDF804800297304629211D22FD
:100DA00009EB0A1304F09AF90AEB8A0AA5EB4A0345
:100DB000CDF800B0CDF804800297304632211D22D4
:100DC00009EB031304F08AF96FE000BF67666666FB
:100DD00098B5FF1F7095FF1FE0780300B896FF1FBE
:100DE000B64FB74EB74880FB040BE317C3EBAB0B12
:100DF0000BEB4B034FF00C0ACDF800A04FF010099D
:100E0000CDF804904FF00108CDF808803846052150
:100E10000A4606EBC30304F061F90BEB8B0BA4EB62
:100E20004B0B0BEB4B03CDF800A0CDF80490CDF8A5
:100E3000088038461221052206EBC30304F04EF960
:100E400003230093CDF80490CDF8088038461F2185
:100E5000052206F1F00304F041F99A4981FB051BD4
:100E6000EB17C3EBAB0B0BEB4B03CDF800A0CDF8AE
:100E70000490CDF8088038462321052206EBC303F1
:100E800004F02CF90BEB8B0BA5EB4B0B0BEB4B0393
:100E9000CDF800A0CDF80490CDF808803846302178
:100EA000052206EBC30304F019F9844804F02CFA78
:100EB000854B1B78012B40F0D580844B1B78012B90
:100EC00042D1834B1B78032B66D1002C20DD7D4A59
:100ED00082FB0532EB17C3EB620303EB83039D42F6
:100EE00016D109A87B4922462B460DF0A3F809A884
:100EF0000DF09EF90246784E33685B68304609A9CA
:100F0000984730460AF02EF8744809A905F06EFBA0
:100F1000ACB9092D40F3F7806A4A82FB0502EB1752
:100F2000C3EB620303EB83039D4208D109A86C491C
:100F30002A460DF07FF8694809A905F057FB624B76
:100F40001B78012B40F08E80604B1B78022B23D145
:100F50005F4B1B78023BDBB2012B00F20081642364
:100F600003FB0454092C40F3D880564A82FB051237
:100F7000EB17C3EB620303EB83039D4208D109A87F
:100F800057492A460DF056F8544809A905F02EFB9A
:100F90004D4B1B78012B65D14C4B1B78032B40F03C
:100FA000DE804B4B1B78022B40F0D9804D4B1B68E9
:100FB0004D4C84FB03241C44DA17C2EB6414A4EBED
:100FC000041503EB85051CB95DBBFFF787FA28E024
:100FD000631E082B0CD8002D40F0A98009A84349B6
:100FE00022460DF027F83D4809A905F0FFFA39E03F
:100FF000052B16D8002D35D03B4885FB00016A181B
:10100000EB17C3EBE203C3EB03139D4209D109A81D
:10101000374922462B460DF00DF8304809A905F056
:10102000E5FAFCB9092D40F38680264A82FB053299
:10103000EB17C3EB620303EB83039D427BD109A84B
:1010400027492A460CF0F6FF244809A905F0CEFAF4
:1010500071E009A822492A460CF0ECFF1F4809A9B3
:1010600005F0C4FA184B1B78022B78D1184B1B786B
:10107000013BDBB2022B72D8092D60DD114B83FBE3
:101080000503EA17C2EB630303EB83039D4266D1BA
:1010900009A813492A460CF0CDFF104809A905F00C
:1010A000A5FA5CE000252C46042B3FF403AD084B69
:1010B0001B78052B7FF494AE14E500BF98B5FF1F95
:1010C0007095FF1F6766666624B5FF1F68B8FF1F2F
:1010D00018B8FF1FE4780300ACC5FF1F60B9FF1FFD
:1010E000F0780300F8B6FF1F89888888F878030035
:1010F000047903001B4B1B78032B7FF471AE51E581
:1011000000252C466CE609A817492A460CF092FFE8
:10111000164809A905F06AFA11E709A812492A46F2
:101120000CF088FF114809A905F060FA30E7052B9B
:101130007FF662AF96E76B1E082B8AD992E709A863
:1011400009492A460CF076FF084809A905F04EFA2D
:1011500005E0074B1B78052B7FF412ADFEE40DB0C4
:10116000BDE8F08F68B8FF1FF078030060B9FF1F7B
:1011700018B8FF1FF0B585B0A64B1B78022B05D120
:10118000A54B1B78012B40F0878007E0012B40F036
:101190003F81A14B1B78022B40F03A819F4B1B787B
:1011A000052B74D19E4B1B689E4981FB0301DB1705
:1011B000C3EBA10101EB810149009B4A82FB013293
:1011C000CB17C3EBA213132B40F3E980954C84FBA0
:1011D0000305DA17C2EBA50505EB8505A3EB45056D
:1011E000924A02FB031184FB0102C917C1EBA20260
:1011F00084FB0214D117C1EBA404274604EB84043A
:10120000A2EB440401A88A495A1B0CF013FF894839
:1012100001A905F0EBF9002D15DD4FF47A7008F007
:10122000BDF801A882492A460CF004FF01A80CF081
:10123000FFFF0246804801684D6801A9A8477D4824
:1012400001A905F0D3F94FF47A7008F0A7F8794DA9
:1012500028467A4905F0CAF94FF4FA7008F09EF86A
:10126000734E01A831463A460CF0E4FE284601A927
:1012700005F0BCF94FF42F7008F090F801A8314642
:1012800022460CF0D7FE284601A905F0AFF9614BC4
:101290001B78022B40F0BC805F4B1B78022B40F088
:1012A000B7805F4B18680BF007FC65490BF00CFD2D
:1012B000044600210BF006FE38B120464FF07C5169
:1012C0000BF046FB0BF012FE06E020464FF07C517F
:1012D0000BF03CFB0BF00AFE0BF0EEFB0BF006FEF6
:1012E000642404FB00F0504C84FB0024C317C3EBC0
:1012F000A414132C70DD4B4B83FB0415E217C2EBD7
:10130000A50505EB8505A4EB4505671B474A02FBD0
:10131000040483FB0420E417C4EBA00083FB001645
:10132000C017C0EBA6064FF4FA7008F037F801A812
:101330003F493A460CF07EFE3E4801A905F056F9B9
:10134000002D15DD4FF42F7008F028F801A838495A
:101350002A460CF06FFE01A80CF06AFF02463648E0
:1013600001684C6801A9A047324801A905F03EF97F
:101370004FF42F7008F012F82E4C20462F4905F03C
:1013800035F94FF4FA7008F009F801A828493246F7
:101390000CF050FE204601A905F028F938E0234A58
:1013A00002FB03111F4C84FB0102C917C1EBA2020F
:1013B00084FB0214D117C1EBA404274604EB840478
:1013C000A2EB440401A81A491A460CF033FE19484E
:1013D00001A905F00BF936E7144B03FB0400114E8D
:1013E00086FB0023C017C0EBA30086FB0036C017A6
:1013F000C0EBA6064FF4FA7007F0D0FF01A80C4925
:1014000022460CF017FE0B4801A905F0EFF8AFE7F4
:1014100005B0F0BD24B5FF1F68B8FF1F18B8FF1F47
:1014200040B9FF1F67666666D34D621018FCFFFF68
:10143000F078030060B9FF1FACC5FF1F10790300EF
:101440000000C8422DE9F04F85B03E4B1B68002BD1
:1014500002DA00223B4B1A603B4C20460021062258
:101460003A4B03F0F7FD374B1B68394A82FB0318F0
:101470009844DA17C2EB6818A8EB081A03EB8A0A3B
:101480000C25009500230193204614212D222623AC
:1014900003F070FE2F4E304B83FB083B4FEAE8739E
:1014A000C3EBAB0B4FF00809CDF800900195012775
:1014B0000297204614212D2206EB0B1303F00EFE9B
:1014C0000BEB8B0BA8EB4B03CDF80090019502972B
:1014D00020461D212D2206EB031303F0FFFD0223FE
:1014E000009301950297204626212D2206F1A003A4
:1014F00003F0F4FD184981FB0A184FEAEA73C3EBC5
:10150000A808CDF8009001950297204629212D22A8
:1015100006EB081303F0E2FD08EB8808AAEB48038A
:10152000CDF8009001950297204632212D2206EB3E
:10153000031303F0D3FD204603F0E6FE05B0BDE83B
:10154000F08F00BF1CB7FF1F98B5FF1F1C79030069
:1015500089888888B896FF1F6766666638B50C4626
:10156000031EBABF5B4201210021022A23D0032AB5
:1015700035D0012A46D102F1883282FB03021A4497
:10158000D817C0EB6212A2EB021003EB80031E48D7
:10159000007803280AD121B120461C490CF04AFDED
:1015A00030E020461A490CF045FD2BE02046184952
:1015B0000CF040FD26E0174A82FB0312D917C1EB5D
:1015C000A212154901FB0233144D85FB0305DB17FD
:1015D00020461349C3EBA5030CF02CFD12E00D4A85
:1015E00082FB0312D917C1EBA2120B4901FB023394
:1015F0000C4D85FB0305DB1720460B49C3EB651338
:101600000CF018FD204638BD68B8FF1F2079030094
:101610002C790300D34D621018FCFFFF67666666E5
:10162000387903001F85EB51447903002DE9F04719
:1016300090B0B54C1025009500230193204614214D
:1016400019221B2303F096FDB04EDFF8FCA2DAF856
:101650000030DFF80893A9FB0313DB0803EB430317
:101660004FF00C08CDF80080019501270297204625
:101670001421192206EBC30303F030FDDAF8002031
:10168000A9FB0213DB0803EB8303A2EB430303EB89
:101690004303CDF8008001950297204621211922AD
:1016A00006EBC30303F01AFD994B1B78BB4240F0D5
:1016B000DA81402300930193029720463F210022C4
:1016C000944B03F00BFD3923009300230193204634
:1016D000432103223A2303F04DFD8F4B1B78BB427D
:1016E00003D0022B00F03C81BDE18C4B1B688C4A7F
:1016F00013608C4A11688C4A11608C4A5168916061
:101700008B480468E41A54600360002940F3AB81FD
:101710007D4C18230093002301932046412105228C
:101720003B2303F027FD204642210122814B03F099
:1017300091FC2046422104227F4B03F08BFC204683
:10174000422106227D4B03F085FC784B5A689B684A
:101750001A4402EBD2725210794B1A60704B19681E
:10176000784B1960704B1B689942C4BF75490B6078
:101770007449086890FBF2F07349096801447348A2
:101780000160B3F5967F03DDF0236E48036004E04B
:101790003C3B6C480360002B04DD93FBF2F26C4889
:1017A000026002E000226A4B1A6062292DDC564D6D
:1017B000684CDFF8A49189FB0123C917C1EBA3038F
:1017C0004FF00808CDF800800C27019701260296FB
:1017D00028466921052204EB031303F07FFC5B4BD1
:1017E0001A6889FB0239D317C3EBA90303EB830300
:1017F000A2EB4303CDF800800197029628467221A0
:10180000052204EB031303F069FC514B1B68622BA8
:101810003ADC3D4C0C2500950023019320466921BC
:101820001E22112303F0A6FC4A4EDFF824A1DAF8A9
:101830000030DFF8249189FB0312DB17C3EBA2030E
:101840004FF00808CDF80080019501270297204647
:1018500069211E2206EB031303F040FCDAF8002096
:1018600089FB0239D317C3EBA90303EB8303A2EB74
:101870004303CDF8008001950297204672211E2275
:1018800006EB031303F02AFC304B1E682E4B1B683B
:10189000F31A2B4A126821490E6802FB13661A4C90
:1018A0000C25009500230193204669212E22112347
:1018B00003F060FCDFF89C80274F87FB0617F317C7
:1018C000C3EBA7074FF0080ACDF800A001954FF031
:1018D0000109CDF80890204669212E2208EB071354
:1018E00003F0FCFB07EB8707A6EB4703CDF800A04E
:1018F0000195CDF80890204672212E2208EB0313A3
:1019000003F0ECFBAFE000BF98B5FF1F7095FF1F21
:1019100024B5FF1F0CA0FF1F68B8FF1FF8B6FF1FFC
:1019200020B7FF1F1CB7FF1F60B8FF1FA4B5FF1F24
:1019300084B5FF1F507903005879030060790300D4
:1019400074B8FF1FECBBFF1F1CB8FF1F48B9FF1F77
:1019500058B9FF1FB896FF1F67666666CDCCCCCC22
:101960007C4B1B680493049A7B4B1B68D21A7B4BFD
:101970001A607B4B1B68012B02D17A494A600FE049
:10198000022B04D1774B5968521A9A6012E0032B4C
:1019900006D1744B5968521A9968511AD96009E0F6
:1019A000042B07D16F4B5968521A9968511ADA689B
:1019B0008A1A1A616B4B5B68002B18DD6A4D28464A
:1019C00046210122694B03F045FB664B586808A984
:1019D0000222FFF7C3FD0246654C204665490CF024
:1019E00029FB284646210222234603F033FB5D4BA8
:1019F000986800280FDD08A90222FFF7AFFD024614
:101A00005B4C20465C490CF015FB574846210322ED
:101A1000234603F01FFB534BD86800280FDD08A9AD
:101A20000222FFF79BFD0246514C204653490CF021
:101A300001FB4D4846210422234603F00BFB494B92
:101A4000186900280FDD08A90222FFF787FD02466A
:101A5000474C20464A490CF0EDFA434846210522FE
:101A6000234603F0F7FA474B1B78022B6CD1464B09
:101A70001B78012B54D13A4B1B68002B64D0012BEF
:101A80001BD1394D4024009401940126029628462A
:101A90003F2100223D4B03F021FB3923009300231B
:101AA00001932846432103223A2303F063FB28468F
:101AB000214632462D4B03F0CDFA264B1B68059389
:101AC0000598254B1B68C31A244A1360304A1068D6
:101AD000181A234C2368234A42F8230008A903223A
:101AE000FFF73CFD014622480CF044FB2368052B20
:101AF00007D85A1C1C484121D2B21D4B03F0AAFA48
:101B000006E01A1F18486021D2B2194B03F0A2FA5E
:101B1000124B1A681E4B1A601A4B1B78022B13D1FA
:101B2000194B1B78022B0FD10D4B1B6863B1094A6F
:101B3000136806930698084B1968411A0748016014
:101B400012680792079A1A60074803F0DDFB10B08D
:101B5000BDE8F08744C0FF1FD4BBFF1F40B9FF1F83
:101B60001CB8FF1FA4B5FF1F98B5FF1F68790300BD
:101B7000ECB5FF1F747903007C79030084790300BE
:101B80008C79030024B5FF1F68B8FF1F0CA0FF1F4E
:101B900080B5FF1F38B502460D46084C204604218B
:101BA000074B03F057FA204604212A46054B03F061
:101BB00051FA204603F0A8FB38BD00BF98B5FF1FBF
:101BC000607A03009479030070B584B00546164C22
:101BD0008023009340230193012602962046002192
:101BE0000A46124B03F07AFA20460A213246104B7D
:101BF00003F030FA20460A2102220E4B03F02AFAA3
:101C000020460A2103220C4B03F024FA0B4E3078B5
:101C10002946FFF7BFFF204603F076FB30782946C0
:101C2000FFF7B8FF04B070BD98B5FF1F089CFF1FF9
:101C30004878030080780300A4780300B496FF1F5F
:101C400070B584B00546134C802300934023019364
:101C500001260296204600210A460F4B03F03EFA69
:101C600020460A2132460D4B03F0F4F920460A21A2
:101C700002220B4B03F0EEF90A4E30782946FFF7AB
:101C800089FF204603F040FB30782946FFF782FFAA
:101C900004B070BD98B5FF1F089CFF1F9879030022
:101CA000A0790300B496FF1F2DE9F04385B080466C
:101CB0002F4C204603F088FB8023009340230193A0
:101CC00001250295204600210A462A4B03F006FA18
:101CD00020460A212A46284B03F0BCF920460A2157
:101CE0000222264B03F0B6F920460A210322244B98
:101CF00003F0B0F920460A210422224B03F0AAF98E
:101D000020460A210522204B03F0A4F920460A218F
:101D100006221E4B03F09EF920460A2107221C4B87
:101D200003F098F91B4D0024114E1B4FDFF8709003
:101D300015F8012F0134012A06D130464121E2B2C3
:101D40004B4603F087F906E02AB930464121E2B25A
:101D50003B4603F07FF9072CEAD1104B1878414637
:101D6000FFF718FF024803F0CFFA05B0BDE8F08393
:101D700098B5FF1F089CFF1FB0790300C4790300CA
:101D8000D8790300EC790300007A0300147A030089
:101D9000287A0300E3BBFF1F407A0300B496FF1FBD
:101DA0003C7A030070B584B00646434C8023009310
:101DB0004023019301250295204600210A463F4B0E
:101DC00003F08CF920460A212A463D4B03F042F9E4
:101DD00020460A2102223B4B03F03CF93A4D3B4B93
:101DE0001B78642202FB03F3394A82FB03121A4474
:101DF0002846384912110CF01DF920460A21032209
:101E00002B4603F027F9344B1B78012B0AD013B172
:101E1000022B0ED013E028482D2103222F4B03F074
:101E200019F90CE024482D2103222D4B03F012F95F
:101E300005E021482D2103222A4B03F00BF91E480F
:101E40000A210422284B03F005F9284B1B78012BAB
:101E500019484FF02D014FF004020CBF204B1F4BCF
:101E600003F0F8F814480A210522214B03F0F2F898
:101E7000204B1B78012B10484FF02D014FF005022D
:101E80000CBF174B154B03F0E5F80B4C20460A210D
:101E90000622194B03F0DEF8204632210122174BAF
:101EA00003F0D8F8164B18783146FFF773FE20463A
:101EB00003F02AFA04B070BD98B5FF1F089CFF1FFD
:101EC000447A0300547A0300ECB5FF1F9C96FF1F71
:101ED00089888888647A030008A0FF1F787A030045
:101EE000807A0300887A0300907A03008097FF1FAE
:101EF0009C7A03000CA2FF1FA87A030008B5FF1FFD
:101F0000B496FF1F70B584B006461D4C8023009325
:101F10004023019301250295204600210A46194BD2
:101F200003F0DCF820460A212A46174B03F092F80A
:101F300020460A210222154B03F08CF820460A2184
:101F40000322134B03F086F820460A210422114B8A
:101F500003F080F820460A2105220F4B03F07AF89F
:101F600020460A2106220D4B03F074F80C4B18781A
:101F70003146FFF70FFE204603F0C6F904B070BDEE
:101F800098B5FF1F089CFF1FB47A0300C47A0300B2
:101F9000D47A0300E47A0300F47A0300047B03009C
:101FA000B496FF1F08B5064B1878012807D9054BD2
:101FB0001870411EC9B2024B1970FFF7EBFD08BD46
:101FC0008C97FF1FB496FF1F08B5084B1878084B75
:101FD0001B78013B984207DC064B1870411CC9B2C4
:101FE000024B1970FFF7D6FD08BD00BF8C97FF1F8D
:101FF00014B9FF1FB496FF1FF8B51B4B01221A70CE
:102000001A4A12785A701A4A12789A70194A127833
:10201000DA70194A1168194A82FB0102C917C1EB2B
:10202000A2021146002AB8BF02F1FF01091219717C
:10203000134B1340002B03DA013B63F0FF03013322
:10204000094A53710F4E741E0F4D06360F4F14F888
:10205000013F012B03D13846294603F0B5FD1C355D
:10206000B442F4D1F8BD00BF6CB8FF1F24B5FF1F08
:1020700068B8FF1F18B8FF1F40B9FF1F6766666684
:10208000FF000080E4BBFF1F60B4FF1F90B8FF1F7C
:10209000F8B50B4B02221A700A4A12685A700A4E9F
:1020A000741E0A4D06360A4F14F8013F012B03D166
:1020B0003846294603F088FD1C35B442F4D1F8BDFA
:1020C0006CB8FF1F1CB8FF1FE4BBFF1F60B4FF1FED
:1020D00090B8FF1F2DE9F0418EB00023A04A137085
:1020E000A04A13703222A04B1A70A04B1B78012B10
:1020F00040F065819E4B1B78012B60D19D4B1B7876
:10210000032B57D8DFE803F01C02364C9A4B1B68B0
:102110009A4A12689A42C4BF984A1360974B1A6849
:10212000974B1A600222934B1A70FEF7D7F9FFF70C
:1021300063FF9448944904F059FAFEF7C7FB39E06D
:1021400001228C4B1A70FEF7C9F9FFF755FF8D4835
:102150008E4904F04BFA19230093002301938C4815
:1021600005211722362303F005F8FFF75FFAFEF783
:10217000ADFB1FE0804B1B68804A12689342BCBFD6
:102180007E4A136003227B4B1A70FEF7A7F9FFF714
:1021900033FF7C487F4904F029FAFEF797FB09E0FA
:1021A0007D4B1A6801321A60FFF740FAFFF770FFA3
:1021B000FEF794F96D4B1B78012B40F000816C4BBE
:1021C0001B78022B40F090806A4B1B78042B00F2A6
:1021D0008780DFE803F0472D1F0361000022674B73
:1021E0001A600422634B1A706C4B1A6804920499AB
:1021F0006B4A11601B680593059A6A4B1A60FEF7DB
:102200006DF9FFF7F9FE5F48624904F0EFF9FEF758
:102210005DFB65E00322574B1A70FEF75FF9FFF78D
:10222000EBFE5848584904F0E1F9FEF74FFB57E040
:10223000514B1B68514A12689A42C4BF4F4A1360FF
:102240004E4B1A684E4B1A6002224A4B1A70FEF728
:1022500045F9FFF7D1FE4B48534904F0C7F9FEF7A3
:1022600035FB3DE00122434B1A70FEF737F9FFF7CB
:10227000C3FE4448454904F0B9F9192300930023EB
:102280000193434805211722362302F073FFFFF71D
:10229000CDF9FEF71BFB23E03F4B1B68032B00F23D
:1022A0001382FEF71BF93C4C236801332360FFF7D0
:1022B000BDF9FFF7EDFE2368042B11D1FEF70EF9EF
:1022C0002C4B1A7801321A70FEF7CEFBFFF794FE02
:1022D000FEF7CAFB4FF47A7007F060F8FEF74AFF8A
:1022E000224B1B78012B6AD1214B1B78032B40F02A
:1022F000EB81204B1B78012B03D0D3B1022B55D09F
:102300005DE01D4B1B681D4A12689A42C4BF1B4A00
:1023100013601A4B1A681A4B1A600222154B1A7076
:10232000FEF7DCF8FFF768FE16481A4904F05EF97C
:1023300045E001220F4B1A70FEF7D0F8FFF75CFE64
:1023400019230093002301931148052117223623F6
:1023500002F010FF0B480D4904F048F92FE000BFD0
:1023600015B9FF1F48B8FF1FF0BBFF1F24B5FF1FA3
:1023700068B8FF1F18B8FF1F1CB7FF1FF8B6FF1F74
:1023800064B8FF1F60B9FF1F147B03001C7B0300B0
:1023900098B5FF1F287B03001CB8FF1F44C0FF1F18
:1023A000D4BBFF1F44B5FF1F347B03000322A54BA2
:1023B0001A70FEF793F8A448A44904F017F9A44B47
:1023C0001B78022B40F08081A24B1B78012B40F040
:1023D000F9809C4B1B78052B00F2EF80DFE803F0BF
:1023E0001B033D4B6BA103F081F803F05DF8954BA7
:1023F0001A7801321A701E23974A1360974A1360A5
:10240000FEF76CF8FFF7F8FD8F48954904F0EEF8F9
:10241000FEF75CFAD1E003F069F803F045F8894B68
:102420001A7801321A701E228B4B1A60FEF756F88A
:10243000FFF7E2FD84488B4904F0D8F81923009394
:1024400000230193884805211722362302F092FECB
:10245000FEF73CFAFFF7EAF8AFE00322794B1A7077
:10246000FEF73CF8FFF7C8FD7748804904F0BEF856
:10247000FEF72CFAA1E00023774A13607C4A11682A
:10248000069106987B4908601268079207997A4A74
:1024900011607A4A1360714A13600422694B1A7002
:1024A000FEF71CF8FFF7A8FD6748754904F09EF891
:1024B000FEF70CFA81E0734B1B68092B00F20481D4
:1024C000FEF70CF86F4C236801332360FFF7AEF87A
:1024D000FFF7DEFD2268092A08D80BA86A490BF02D
:1024E000A9FD59480BA904F081F866E00A2A64D1D5
:1024F0006648674904F028F8524B1A7801321A707E
:10250000FFF77AFDFEF7E2F9FEF7AEFA4FF47A70C4
:1025100006F044FF0820002106F080FEFEF72AFEA8
:102520004BE001274B4B1F7000245A4B1C704E4E42
:10253000304602F049FFDFF874814025009501958F
:102540000297304621462246434602F0C7FD0095D9
:102550000195029730463F212246434602F0BEFDD8
:10256000384B1C701E223C4B1A60464B1C604A4B79
:1025700003F12801224643F8042F8B42FBD1474B3D
:102580001B780BB9FFF752F8374C20464021012247
:10259000434B02F05FFDFFF72FFDFFF779FD20466B
:1025A00002F0B2FEFEF760FAFEF790F9FDF796FF33
:1025B00025483C4904F01AF886E0254B1B78022B8D
:1025C00040F08280234B1B78022B7DD11D4B1B7862
:1025D000032B11D0042B6BD0002B75D10322194B88
:1025E0001A70FDF77BFFFFF707FD17481F4903F03F
:1025F000FDFFFEF76BF967E00023174A13601C4CE0
:102600002268089208991B4A116022680992099968
:10261000194A1160194A1360104A13600422094BC9
:102620001A70FDF75BFFFFF7E7FC0748144903F05A
:10263000DDFFFEF74BF923680A930A9A1A4B1A60DA
:1026400042E000BF18B8FF1F60B9FF1F407B0300C6
:1026500024B5FF1F68B8FF1FF8B6FF1F64B8FF1F3F
:102660004C7B0300587B030098B5FF1F147B0300CD
:1026700044C0FF1FD4BBFF1F44B5FF1F80B5FF1F21
:10268000287B03001CB8FF1F647B030020B8FF1FDA
:1026900010130100049CFF1FA4B5FF1F0CA2FF1F15
:1026A000707B0300787B030028B7FF1F0CA0FF1F7F
:1026B000FDF714FF064B1A6801321A60FEF7B6FFE9
:1026C000FFF7E6FCFEF756FD0EB0BDE8F08100BF57
:1026D0001CB8FF1F2DE9F04184B0784B1B78012B0B
:1026E00040F0AF80764B1B78022B3FD0032B7FD07E
:1026F000012B40F0A680734D284602F065FE0126AE
:10270000714B1E70714F402400940194029628462C
:1027100000210A463B4602F0E1FC00940194029637
:1027200028463F2100223B4602F0D8FC684CF023AB
:1027300023600023674A1360674A53609360FEF783
:1027400075FFFFF759FCFFF7A3FC644B1B68226879
:102750009A4202DD2360624A1360FEF785F9FEF7B4
:1027600071FEFEF7B3F8FDF7B9FE6AE0564B1B7831
:10277000032B00F2A080534D284602F025FE0126CF
:10278000514B1E70514F40240094019402962846EC
:1027900000210A463B4602F0A1FC009401940296F7
:1027A00028463F2100223B4602F098FC484C3C233F
:1027B00023600023474A1360474A53609360D36005
:1027C0001361FEF733FFFFF717FCFFF761FC434B84
:1027D0001B6822689A4202DD2360414A1360FEF7BB
:1027E00043F9FEF72FFEFEF771F8FDF777FE28E0BC
:1027F0000125354B1D70334C204602F0E5FD80234A
:102800000093402301930295204600210A46354B50
:1028100002F064FC4FF416732D4A1360304A1360C3
:102820002E4B1B68B3F5167F03DA294A13602C4A36
:102830001360FEF719F9FEF705FEFEF747F8FDF7FE
:102840004DFE1E4B1B78022B35D11E4E304602F03A
:10285000BBFD00241C4B1C701C4F402500950195AE
:102860004FF00108CDF808803046214622463B460D
:1028700002F034FC00950195CDF8088030463F21E8
:1028800022463B4602F02AFC1E22114B1A60114BD5
:102890001C6011490B1F2831224643F8042F8B423C
:1028A000FBD1FEF7C3FEFFF7A7FBFFF7F1FBFEF737
:1028B0000DF8FDF713FE04B0BDE8F08124B5FF1F4D
:1028C00068B8FF1F98B5FF1F18B8FF1F0CA0FF1FA7
:1028D000F8B6FF1F1CB8FF1FA4B5FF1F1CB7FF1FD2
:1028E00064B8FF1F089CFF1F10B58AB0684603F04C
:1028F00005F9164A164B1B78403313705423537056
:10290000022314490B7005A8134903F005F99DF83B
:1029100018308DF804309DF819308DF80530079B7C
:102920000293089B03939DF824308DF810300B4CD4
:102930002046694603F048F96846094903F008F95A
:102940002046694603F040F90AB010BD6C95FF1FA0
:102950000DA2FF1F2CB7FF1F009CFF1F90B8FF1F89
:102960008897FF1F10B588B0164C2046002103F051
:1029700095F82046002103F095F868462146124A52
:1029800003F0E8F8114B9DF804201A719DF805201A
:102990005A71029A9A60039ADA609DF810201A74AC
:1029A00003F1140205A903C982E80300BDF81C2045
:1029B0009A839DF81E209A770548194603F004F97A
:1029C00008B010BD38B9FF1F9097FF1F18B9FF1F3F
:1029D00090B8FF1F2DE9F04389B007464FEAC009C0
:1029E00009F1140409F118080025284E2D0230467B
:1029F000214602F005FE054401344445F6D109F1B3
:102A0000180409F11C090026DFF8808036024046D0
:102A1000214602F0F5FD064401344C45F6D11C4C2C
:102A20002046294603F03AF82046314603F03AF8AA
:102A300068462146174A03F08DF8174C9DF804307C
:102A400023719DF805306371029BA360039BE360D3
:102A50009DF81030237404F1140305AA92E80300D2
:102A600083E80300BDF81C30A3839DF81E30A377D4
:102A700007F10A012046C9B203F006F807482146CB
:102A800003F0A2F809B0BDE8F08300BF20BCFF1F2F
:102A900038B9FF1FB096FF1F18B9FF1F90B8FF1F6E
:102AA00010B58AB00446684603F028F8294B1A7816
:102AB0004032294B1A70601E042823D8DFE800F04A
:102AC00003090F151B00244B41225A7031229A70C2
:102AD00018E0214B41225A7032229A7012E01E4BAC
:102AE00042225A7031229A700CE01B4B42225A70DB
:102AF00032229A7006E0184B50221A7041225A7006
:102B000053229A700323154A137005A81449124AD8
:102B100003F002F89DF818308DF804309DF8193054
:102B20008DF80530079B0293089B03939DF8243092
:102B30008DF810300B4C2046694603F045F8684686
:102B4000094903F005F82046694603F03DF80AB04C
:102B500010BD00BF0DA2FF1F6C95FF1F2CB7FF1FFC
:102B6000F09BFF1F90B8FF1F8897FF1F2DE9F043D0
:102B70008DB007464FEAC00909F1140409F118089D
:102B80000025304E2D023046214602F039FD054425
:102B900001344445F6D109F1180409F11C09002655
:102BA000DFF8A08036024046214602F029FD0644A7
:102BB00001344C45F6D1DFF8A0804046294602F0AA
:102BC0006DFF4046314602F06DFFC7EBC7041E4B58
:102BD00003EB8404002300931C4A01920822029212
:102BE0000A37FFB2039705A841464FF6FE7202F07E
:102BF00067FF9DF8183023719DF819306371079BAA
:102C0000A3609DF82030237304F1100309AA92E811
:102C1000030083E80300BDF82C3023839DF82E3099
:102C2000A3769DF82F30E376094C23685B68204635
:102C300008490B229847204608F094F90DB0BDE8EA
:102C4000F08300BF20BCFF1F60B4FF1F6CB8FF1FE4
:102C5000ACC5FF1F847B03003CB5FF1F08B50128EE
:102C600006D110486E2101220F4B02F0F3F915E056
:102C70000E4B1B78012B09D100220C4B1A7009480E
:102C80006E2101220A4B02F0E5F907E00122074B11
:102C90001A7004486E21074B02F0DCF9014802F07B
:102CA00033FB08BD98B5FF1F907B03004CB9FF1F95
:102CB000607A03009479030070B5162005F054FF84
:102CC000400009F0F9FE174909F04AFF4FF06A5138
:102CD00009F046FF144909F03BFE09F025FB0446C4
:102CE0000D46124BC3E900450022114B09F0E2FDED
:102CF00030B92046294600220E4B09F0F9FD80B17B
:102D00000D4E30460D4922462B460BF093F90C4CE4
:102D1000204640210622334602F09CF9204602F06C
:102D2000F3FA70BD333353409A99593FF89BFF1F14
:102D30000000F03F00000840ECB5FF1F947B03004B
:102D400098B5FF1F70B584B00646184C80230093D9
:102D50004023019301250295204600210A46144B89
:102D600002F0BCF920460A212A46124B02F072F901
:102D700020460A210222104B02F06CF920460A215B
:102D800003220E4B02F066F90D4B18783146FEF720
:102D900001FF20463F212A460A4B02F05BF9FFF76C
:102DA0008BFF204602F0B0FA04B070BD98B5FF1F4B
:102DB000089CFF1FA47B030098790300AC7B0300F1
:102DC000B496FF1F08B5FF1FF0B585B0964C20469E
:102DD0000021964B1A7802F017FC954D20460121F0
:102DE0002A7802F011FC20460221924B1A7802F058
:102DF0000BFC914802F0E8FA2B78142B00F2788251
:102E0000DFE813F015002300F300C7017602760215
:102E100076027602760276027602760276027602F2
:102E20007602760276027602760276024F0200225F
:102E3000804B1A700322814B1A700120804B18704E
:102E4000804B1870FFF77EFF52E2784B1B78012B06
:102E50000BD10120774B18700322784B1A70784BF6
:102E60001870784B1870FEF7AFFE704B1B78002B74
:102E700040F03E82704802F0A7FA6E4B1B78022B9E
:102E800041D0032B7DD0012B40F0A2806A4E6E4DC5
:102E900040240094019401270297304600210A46FD
:102EA0002B4602F01BF900940194029730463F2113
:102EB00000222B4602F012F90023644A13704FF4EB
:102EC000D271634A1160F021624A1160624A136054
:102ED000624A53609360624B1B780BB9FEF7A6FB06
:102EE0005548002101225F4B02F0B4F8FFF784F847
:102EF000FFF7CEF8FDF7F2FA5B485C4903F076FB8A
:102F000002F0D2FA64E04C4E4F4D402400940194FC
:102F100001270297304600210A462B4602F0DEF8D0
:102F200000940194029730463F2100222B4602F084
:102F3000D5F80023454A1370F021454A11603C2121
:102F4000444A1160444A1360444A53609360D3601A
:102F50001361434B1B780BB9FEF768FB3648002121
:102F60000122434B02F076F8FFF746F8FFF790F89E
:102F7000FDF7B4FA3C483D4903F038FB02F094FAFF
:102F800026E02D4D802300934023019301240294D9
:102F9000284600210A46374B02F0A0F800212B4BAF
:102FA00019704FF434722A4B1A604FF41673294A81
:102FB0001360314A136028462246304B02F04AF82B
:102FC000FDF78CFA2848294903F010FB02F06CFA4F
:102FD000194802F099F9FDF747FD214B1B780BB911
:102FE000FEF730FAFDF772FC82E1104B1B78012BE3
:102FF0000BD101200F4B18700222104B1A70104B8E
:103000001870104B1870FEF71BFE084B1B78002B36
:1030100040F06E81084802F0D7F9064B1B78012B6F
:103020002ED0022B73D063E120BCFF1F049CFF1F36
:1030300024B5FF1F68B8FF1F98B5FF1F14B9FF1F05
:103040008C97FF1FB496FF1F0CA0FF1F18B8FF1F1F
:103050001CB7FF1FF8B6FF1F1CB8FF1FA4B5FF1F4A
:103060000CA2FF1F4878030060B9FF1F787B0300A4
:10307000B47B0300089CFF1F64B8FF1FA478030003
:103080009E4D284602F0A0F99D4E402400940194E4
:1030900001270297284600210A46334602F01EF80F
:1030A00000940194029728463F210022334602F003
:1030B00015F80023934A13701E21934A1160934A16
:1030C0001360934B03F12801002243F8042F8B4235
:1030D000FBD1904B1B780BB9FEF7A8FA874C204622
:1030E000402101228C4B01F0B5FFFEF785FFFEF772
:1030F000CFFF204602F008F9FDF7B6FCFDF7E6FB2E
:10310000FDF7ECF98548864903F070FAF0E07B4D55
:10311000284602F059F97A4E402400940194012780
:103120000297284600210A46334601F0D7FF009453
:103130000194029728463F210022334601F0CEFF3A
:103140000023704A13701E216F4A11606F4A13608A
:103150006F4B03F12801002243F8042F8B42FBD16F
:10316000664C2046402101226E4B01F073FFFEF7B2
:1031700043FFFEF78DFF204602F0C6F8FDF774FC12
:10318000FDF7A4FBFDF7AAF96448654903F02EFAA0
:10319000AEE0654B1B78012B0CD10A22634B1A70F1
:1031A0000622634B1A700120624B1870624B187034
:1031B000FEF7F8FD5C4B1B78002B40F099804F48E0
:1031C00002F002F9594B1B780A3B052B00F2908064
:1031D000DFE803F00E031A344C640722544B1A70D4
:1031E0000120544B1870544B1870FEF75DFD7FE0C2
:1031F00006224F4B1A70514B18784E4B18704E4B9D
:103200001870FEF77FFE73E04D4B1B780133DBB285
:10321000022B02D84A4A137002E00022484B1A706F
:1032200048486321464B1A7802F0C0F901223E4B10
:103230001A70404B1878FEF7B5FD59E0424B1B78E9
:103240001BB90122404B1A7002E000223E4B1A705B
:103250003C4808213C4B1A7802F0A8F90122324B75
:103260001A70344B1878FEF79DFD41E0294B1B780E
:103270001BB90122274B1A7002E00022254B1A705D
:1032800030480521234B1A7802F090F90122264B91
:103290001A70284B1878FEF785FD29E0FDF7AEFA85
:1032A00026E0164C802300934023019301250295CC
:1032B000204600210A46254B01F010FF20460A2136
:1032C0002A46234B01F0C6FE20460A210322214B49
:1032D00001F0C0FE204D28462049214BD3E90023B0
:1032E0000AF0A8FE20460A2105222B4601F0B2FE74
:1032F000024802F009F805B0F0BD00BF98B5FF1F05
:103300000CA0FF1F18B8FF1FF8B6FF1F1CB8FF1F47
:10331000A4B5FF1F0CA2FF1F707B030060B9FF1F45
:10332000787B0300BC7B0300049CFF1F68B8FF1F71
:1033300014B9FF1F8C97FF1FB496FF1F0DA2FF1F2C
:1033400008A0FF1F20BCFF1F8097FF1F089CFF1FC6
:10335000C87B0300D47B0300ECB5FF1F947B030004
:10336000F89BFF1F70B584B0A5480A2107F070FADA
:10337000A44B4FF400429A61DA6100221A625A6249
:10338000A1480A2103F0B2FD80B9A04CA04E1C2533
:1033900023685B68204631462A469847204607F056
:1033A000E1FD4FF4FA7005F0F9FFF1E70820012183
:1033B00005F066FF0820002105F030FF02F064FCF4
:1033C000944C2046944901F0D7FC20464FF47A7182
:1033D00001F0CEFC4FF47A70904902F055F8904C11
:1033E0002046182101F07EFF204601F0EDFF8023EA
:1033F00000934023019301250295204600210A46AF
:10340000884B01F06BFE204603210422864B01F01D
:1034100021FE204606210522844B01F01BFE20469A
:1034200006210A46824B01F015FE204601F06CFF92
:103430000021804A1170804A1170804C204602F0B1
:10344000DFF87F4B18702046294602F0D9F87D4BF3
:1034500018702046022102F0D3F87B4B18702046EA
:10346000092102F0CDF8794B18702046632102F053
:10347000C7F8774B18702046082102F0C1F8754B49
:1034800018702046052102F0BBF8734B18702046D7
:10349000622102F0B5F8714D28702046062102F035
:1034A000AFF86F4B1870FDF7A3F82B78013BDBB238
:1034B000052B40F2A18001222A702046622102F0F1
:1034C00075F899E0E0B2FFF751FB0134072CF9D110
:1034D0000A245A4E634D3046214602F091F82B19CA
:1034E00003F80A0C0134112CF5D1484C20465E49F2
:1034F000FCF7BEFF51484FF47A7102F015F841F223
:10350000883005F0BDFF594E3046594902F01AFA8D
:1035100020465849FCF7ACFF574D2846574902F062
:1035200017FB20465649FCF7A3FF3046294602F018
:103530004BFB20465349FCF79BFF364801F024FD26
:10354000362838D1FDF7F2F820464F49FCF790FFB6
:1035500001253C4B1D70324C204601F035FF802385
:103560000093402301930295204600210A46474BD1
:1035700001F0B4FD20460A212A46454B01F06AFDC0
:1035800020460A210322434B01F064FD20460A2114
:103590000522414B01F05EFD204601F0B5FE0820FA
:1035A000294605F03BFE4FF4FA6005F0F7FE0820CF
:1035B000002105F033FE154D28463849FCF758FF29
:1035C0004FF47A6005F0EAFE0024354B1C70FDF7DD
:1035D00035F9FFF7F9FB0820214605F01FFE3148B9
:1035E000214602F0E7FD3048304902F0ADFF2846A1
:1035F0002F49FCF73DFF01E0002463E704B070BDF4
:103600000082FF1F48B5FF1FD4BCFF1FACC5FF1FC2
:10361000E47B030034B7FF1FB536000065040000EB
:1036200098B5FF1F9497FF1F047C03000C7C0300D8
:10363000147C030044B9FF1F5CB9FF1F20BCFF1FAF
:10364000049CFF1F24B5FF1F68B8FF1F0DA2FF1FBA
:1036500008A0FF1F8097FF1F0CA2FF1F9D96FF1F52
:103660009C96FF1FE4BBFF1F207C030090B8FF1F48
:1036700080C5FF1F307C030028B5FF1F009CFF1F83
:10368000407C03004C7C0300587C0300089CFF1F17
:10369000C87B0300647C0300ECB5FF1F747C03004F
:1036A00015B9FF1F00B7FF1F20B8FF1F101301003F
:1036B000887C030010B504461F4801F055FB022822
:1036C00039D1362C14D11D4B1B78012B2AD11C4B20
:1036D0001B78002B2FD1FFF777FBFCF7FFFE21E0D3
:1036E000174B1B783BBBFFF76FFBFCF7F7FE10BDDA
:1036F000392C20D1114B1B78012B18D1114B1B7881
:10370000012B18D90E4B1B78ABB9FEF7E3FF0EE087
:103710000C4B1B78012B0ED9094B1B785BB9FEF7BC
:10372000D9FF10BD054B1B78022B04D1D8E7034B02
:103730001B78022BECD010BD34B7FF1F24B5FF1F40
:10374000049CFF1F18B8FF1F38B50A4D08F0ECFDA8
:1037500002460B46284608490AF06CFC074C2046F6
:103760003B2103222B4601F075FC204601F0CCFDE5
:1037700038BD00BFECB5FF1F987C030098B5FF1F54
:1037800038B5164C20460A210322154B01F062FC85
:10379000144D154B186808F0C7FD02460B46284625
:1037A00012490AF047FC2046022104222B4601F070
:1037B00051FC0F4B186808F0B7FD02460B4628462F
:1037C0000C490AF037FC2046022105222B4601F065
:1037D00041FC204601F098FD38BD00BF98B5FF1FA1
:1037E000A87C0300ECB5FF1F50B9FF1FB07C03009D
:1037F00054B9FF1FC07C030010B502F08DFAE0B190
:1038000002F09AFA1C4B1A68104418601B4A13689D
:1038100001331360032B10DD90FBF3F002F0AAFAE2
:10382000174909F09DF9174909F09AF9164B1860E4
:103830000023114A1360114A1360172005F094F910
:103840004FF4B47303FB00F00028B8BF00F2FF3060
:10385000801209F031F904460C4909F03DFB10B91A
:103860000B4B1C6010BD0B48214609F06FF800F1AE
:103870000040074B186010BD88B5FF1FFCB6FF1F46
:10388000000010406DE2E43E54B9FF1F00003443D5
:1038900050B9FF1F0000B4432DE9F04FDBB0704B6F
:1038A0001B78012B01D1FFF7A7FF6E4B1B68049318
:1038B000049A6D4B1B68D21A6C4B9A420CD96C4B14
:1038C0001B78022B08D16B4B1B78022B04D16A4B5F
:1038D0001B78042B00F0CC87624B1B680693069A7A
:1038E000664B1B68D31AB3F5FA7F36D9644B1B7845
:1038F000002B32D15E4B1B78022B2ED85E4B1B78EF
:10390000002B00F0EF8728E014A85E490AF092FB34
:1039100014A80AF08DFC02465B4C23685B682046C5
:1039200014A99847204607F01DFB584C2078FFF754
:1039300051F82278564B1A70544B1B78032B03D83E
:103940000133524A137002E00022504B1A70444B6C
:103950001B78012B01D1FFF713FF424B1B68089323
:10396000089A464B1B68D31AB3F57A7F08D9444BA3
:103970001B78012B04D13E4B1B78002B00F0D58720
:10398000384B1B680A930A9A3C4B1B68D31AB3F551
:103990007A7F0ED93A4B1B78002B40F03281344BA2
:1039A0001B78032B0AD1334B1B780F2B06D100F069
:1039B000D1BF334B1B78002B40F023812C4B1B785D
:1039C000022B7CD1274B1B680C930C9A314B1B6844
:1039D000D31A092B23D9234B1B680D930D9A2D4B1A
:1039E0001A602D4B1B7813B1013B2B4A13702B4BE4
:1039F0001B7813B1013B294A1370294B1B7843B143
:103A0000013BDBB2264A13701BB90820002105F0E8
:103A100005FC194B1B78042B01D1FDF725F8214B30
:103A20001B78012B46D100221E4B1A70124B1B78BB
:103A3000013BDBB2022B09D81B4B1B68934205DD0F
:103A4000013B194A13600BB9FEF744FB0A4B1B7884
:103A5000042B2BD1144B1A6801321A602AE000BFE4
:103A60000CA2FF1F44C0FF1F28B7FF1FE0930400F4
:103A700024B5FF1F68B8FF1F18B8FF1F30B7FF1F1E
:103A8000049CFF1FD07C0300ACC5FF1F24B7FF1FA1
:103A90006895FF1F44B5FF1FF0BBFF1FD0BBFF1F82
:103AA000A0B5FF1F44B9FF1FF8B6FF1F032B01D8B5
:103AB000FCF7DAFF924B1B78002B40F0A280914B71
:103AC0001B78012B40F09D808F4B1B680E930E9A44
:103AD0008E4B1B68D31A092B21D98B4B1B680F9374
:103AE0000F9A8A4B1A608A4B1B7813B1013B884AA4
:103AF0001370884B1B7843B1013BDBB2854A1370CE
:103B00001BB90820002105F089FB834B1B78022B91
:103B100005D1824B1B78042B01D1FCF7A5FF804B0C
:103B20001B78012B6DD100227D4B1A707A4B1B78CC
:103B3000022B20D0032B40D0012B4BD1774B1B788D
:103B4000032B47D1774B1B68934240F32387013BFC
:103B5000744A1360002B03DC0422704B1A7003E0DC
:103B60006E4B1B78042B35D1FCF7B8FC6B4B1A78E5
:103B700001321A702EE0694B1B78023BDBB2012B3D
:103B80000DD8684B1B68002B09DD674A1268002AB4
:103B900005DD013B634A13600BB9FEF79BFD5F4BEC
:103BA0001B78042B16D1604B1B68002B40F3F28668
:103BB0005C4B1A6801321A600CE0584B1B78022BE0
:103BC00008D1594B1B68002B40F3E486554B1A680B
:103BD000013A1A60514B1B7863B1534A1268002AAC
:103BE00002DD013A50490A604B4A1278022A01D19B
:103BF000032B01D8FCF738FF484B1B780BB1FDF7BE
:103C000021FC4A4801F0C0F93138072800F214823B
:103C1000DFE810F00800F601C200E20050011202D5
:103C2000020129013A4B1B78002B40F00582404BE2
:103C30009B787BBB334B1B78012B40F0BB86374B0B
:103C40001B78032B40F0AF86334B1B78012B40F0E1
:103C5000AA86384B1B6813F0010F40F0A486FEF7CC
:103C600039FAE9E12C4B1B78022B13D1314B1B683D
:103C700013F0010F0ED1FEF72DFADDE1274A12787D
:103C8000042A0DD12B4A126812F0010F08D1FEF759
:103C900021FAD1E11B4B1B785A1ED2B2012A05D85A
:103CA0001E4A127812B9FEF715FAC5E1204A1278B9
:103CB000002A4FD1012B4DD1184B1B785A1ED2B27E
:103CC000012A06D814490978012902D1FEF702FA1F
:103CD000B2E1032B0BD1104A1278012A09D1154AFF
:103CE000126812F0010F04D0FEF7F4F9A4E1022AE1
:103CF00022D8094A1278022A1ED1FEF7EBF99BE17D
:103D0000049CFF1F24B5FF1F44C0FF1F44B5FF1FC5
:103D1000F0BBFF1FA0B5FF1F68B8FF1F18B8FF1F3B
:103D200044B9FF1FF8B6FF1F1CB7FF1F34B7FF1FB2
:103D3000E4BBFF1F1CB8FF1F042B25D1A34B1B782E
:103D4000022B21D1A24B1B6813F0010F1CD0FEF7F0
:103D5000C1F971E1022B14D19E4B1B78591EC9B2D7
:103D6000022902D9052B40F01986FEF7B3F963E169
:103D7000974B1B6813F0010F00F05E81FEF7AAF964
:103D80005AE1012B40F05881904B1B78032B40F0F7
:103D90005381FEF79FF94FE18F4B1B78CBB98D4BC9
:103DA0001B7853B98D4B1B78013BDBB2012B04D838
:103DB000FCF7A0FC884B1B785BB9884B1B78032B66
:103DC00040F03A81FEF7EEF8834B1B78002B00F0B1
:103DD0003381FEF7E7F82FE17F4B1B78CBB97D4BA2
:103DE0001B7853B97D4B1B78013BDBB2012B04D808
:103DF000FCF78EFC784B1B785BB9784B1B78032B58
:103E000040F01A81FEF7E0F8734B1B78002B00F0AE
:103E10001381FEF7D9F80FE16F4B1B78012B40F0AF
:103E20000B816E4B1B78032B40F006816C4B1B788B
:103E3000032B40F001816B4B1B78012B10D9013B08
:103E4000DAB2684C22706848622101F0AFFB14A816
:103E5000664922780AF0EEF8654814A9FCF708FBD9
:103E6000FCF73CFBE8E05C4B1B78012B40F0E48066
:103E70005A4B1B78032B40F0DF80594B1B78032BE8
:103E800040F0DA80574B1B78052B10D80133DAB29B
:103E9000544C22705448622101F088FB14A8534905
:103EA00022780AF0C7F8524814A9FCF7E1FAFCF7A7
:103EB00015FBC1E0484B1B78002B2ED0474B1B78DD
:103EC000032B00F2B980DFE803F00209131D444B15
:103ED0001A78424B1A70FEF777FFADE0404B1A7824
:103EE0003A4B1A7000223C4B1A70FEF76DFFA3E0AC
:103EF0003B4B1A78354B1A700022374B1A70FEF77D
:103F000063FF99E0364B1A780932304B1A70002261
:103F1000314B1A70FEF758FF8EE0304B1B78032BA5
:103F200040F08A80294B1B780B2B17D00F2B47D0E2
:103F30000A2B40F081802F4C294B1B782370FCF713
:103F40007DFC29480921227801F05EFBFEF7CCFCBC
:103F50000122214B1A70FEF737FF6DE0204E3278B8
:103F6000254DAB1814A8254913F8013C0AF062F856
:103F700014A80AF05DF902461D4C23685B682046D0
:103F800014A99847204606F0EDFF3078431EEA5CFE
:103F9000012A02D10021E95404E00121164AD1543A
:103FA000FEF77EFD0E4C2178134B0B440E48093171
:103FB00013F8012C01F028FB2078FDF775FE3BE09B
:103FC0000122054B1A70FEF7FFFE35E068B8FF1FAF
:103FD0001CB8FF1F18B8FF1F049CFF1F24B5FF1F4C
:103FE0008C97FF1F9D96FF1F20BCFF1FE07C0300E6
:103FF000ACC5FF1F0DA2FF1FE4BBFF1FEC7C03003D
:10400000A54B1B785BB9A54B1B78ABB90122A24B22
:104010001A70FEF7D9FEA24801F076F90CE0012BE8
:104020000AD100229F4B1A7001229B4B1A70FEF797
:10403000CBFE9B4801F068F99B4C204601F0AAFC9E
:10404000204601F0A5FC01F0A3FB002800F0B78496
:10405000204601F09DFC01F099FB972840F0B080CC
:10406000204601F095FC914C214601F0F7FB2046DB
:1040700001F0E8FB0378442B7BD1204601F0E2FB02
:104080004378422B75D1204601F0E0FB027814A85A
:10409000874909F0CFFF14A80AF0CAF80246854CF8
:1040A00023685B68204614A99847204606F05AFF0B
:1040B000794B1B78002B5CD17A4B1B78013BDBB230
:1040C000012B56D8754B1B78002B52D1774801F045
:1040D000BDFB047834B11A3CE4003E2394FBF3F4B6
:1040E000C4F10904714801F0E3FB0C2817D00E2835
:1040F00029D00A283AD134B96F4B93E803001490C1
:10410000ADF8541004E014A86C49224609F092FF5F
:1041100063484021022214AB00F09CFF26E034B932
:10412000674B93E803001490ADF8541004E014A812
:104130006449224609F07EFF59484021032214AB0E
:1041400000F088FF12E034B95F4B93E8030014904D
:10415000ADF8541004E014A85C49224609F06AFF47
:104160004F484021042214AB00F074FF4C4801F08A
:10417000CBF84E4801F066FB0378492B20D14B4821
:1041800001F060FB4378532B1AD1484C204601F0D4
:104190005DFB05792D02204601F058FB407928444B
:1041A00008F08AFC4A4908F0DBFC4A4908F08CFD1B
:1041B000494908F0D5FC494908F0CAFBFFF7C4FAA1
:1041C000394801F0E5FB01F0E1FA882840F09380DE
:1041D000354801F0DDFB424C214601F089FB2046C9
:1041E00001F07EFB00283DD0204601F069FB0378FA
:1041F000442B37D1204601F063FB4378422B31D169
:10420000204601F065FB027814A8364909F012FF38
:1042100014A80AF00DF80246264C23685B68204675
:1042200014A99847204606F09DFE1B4B1B78CBB97E
:104230001C4B1B78032B15D12B4B1B780F2B11D14B
:10424000274801F045FB027814A8284909F0F2FE3E
:10425000134C20460A21022214AB00F0FBFE20463C
:1042600001F052F81E4801F03BFB002843D01C48E7
:1042700001F026FB0378412B3DD1194801F020FBCA
:104280004378492B37D1164801F022FB03787BBBDA
:104290000020FEF7E3FC2EE0049CFF1F18B8FF1F70
:1042A00098B5FF1F24B5FF1F90B8FF1F4CB8FF1F24
:1042B000087D0300ACC5FF1F287D0300307D03008F
:1042C000387D0300407D0300487D0300507D0300DE
:1042D0009A99993F00C07F44CDCC4C40CDCC4C3F07
:1042E000D8BBFF1F587D030068B8FF1F707D030017
:1042F0000120FEF7B3FCB14801F0F2FA002800F00B
:104300001981AE4801F0DCFA03784E2B40F012819F
:10431000AA4801F0D5FA4378442B40F00B81A74816
:1043200001F0D6FAC37A422B0CBF4FF002084FF0CF
:104330000008A24801F0CCFA037B322B04BF08F13D
:1043400001085FFA88F89D4801F0C2FA837A502B81
:1043500008BF4FF00408994801F0BAFA837A572B46
:1043600008BF4FF00508954801F0B2FA837A442B54
:1043700008BF4FF006080024904D914F914E13E076
:10438000284601F0A5FA025D10ABE25414A83946A4
:1043900009F050FE14A809F04BFF024633685B6831
:1043A000304614A998470134284601F08DFA84421A
:1043B000E6DB844C204606F0D5FDC2467F4D2846FC
:1043C00001F086FA06783602284601F081FA427832
:1043D000324492B27C4B23F8182014A87B4909F090
:1043E00029FE14A809F024FF024623685B682046D2
:1043F00014A998474FEAC806022400250DF1400B86
:104400001236DFF8FC9114F80B2002EB0525374635
:104410004846A11901F0CAF80134062CF3D1002650
:104420000DF1400BDFF8D89114F80B2002EB0626B3
:104430004846E11901F0BAF801340A2CF4D1644F6E
:104440003846294601F02AFB3846314601F02AFB5E
:10445000CAEBCA045F4B03EB8404002300935E4A5B
:1044600001920822029208F10A02D2B2039253A8E2
:1044700039464FF6FE7201F023FB9DF8503123714F
:104480009DF851316371559BA3609DF8583123739A
:1044900004F1100357AA92E8030083E80300BDF873
:1044A000643123839DF86631A3769DF86731E37606
:1044B000424C204601F00CFA90F80A90204601F098
:1044C00007FAC77A204601F003FACDF80090019769
:1044D000037B0293CDF80CA014A840492A4633462A
:1044E00009F0A8FD14A809F0A3FE0246354C236884
:1044F0005B68204614A99847204606F033FD08F172
:1045000001085FFA88F8364C204655214246354B63
:1045100000F0A0FD204600F0F7FE4FF4FA6004F032
:104520003DFF2046552142462F4B00F093FD20468B
:1045300000F0EAFE2D4801F02BFA01F027F990284F
:1045400040F00D81294801F023FA294C211D01F08A
:1045500057F9204601F052F901F09EFA204601F089
:104560004DF901F09DFA2046002101F097F958B964
:10457000204B5B78012B04D11F4B1A7801321A7043
:1045800002E002221C4B1A701948002101F086F942
:10459000012803D1184B1A7801321A7014480021EF
:1045A00001F07CF9022830D1124BDB78012B29D1A4
:1045B000124B1A7801321A7027E000BFD8BBFF1FD8
:1045C000907D0300ACC5FF1F18B5FF1F847D03005D
:1045D0003CB5FF1F60B4FF1F6CB8FF1F987D030040
:1045E00098B5FF1FB87D0300C07D030090B8FF1F82
:1045F00078B8FF1FE4BBFF1F48B8FF1F15B9FF1FA6
:1046000020BCFF1F0222A24B1A70A248002101F019
:1046100045F9032803D19E4B1A7801321A709C4B3E
:104620001B78022B37D10022994B1A709A4B1B78BA
:10463000012B21D1994B1B78032B0ED1984B1B7862
:10464000012B28D1974B1B6813F0010F23D1FDF7E5
:1046500041FD914B1B78012B0ED1904B1B78042B05
:1046600019D18F4B1B78022B15D18E4B1B6813F081
:10467000010F10D1FDF72EFD874B1B78022B0AD1BD
:10468000864B1B78042B06D1864B1B6813F0010F59
:1046900001D1FDF71FFD844B1B78022B5FD1002257
:1046A000814B1A707C4B1B78012B41D17B4B1B78C3
:1046B000032B0ED17A4B1B78012B1DD1794B1B6834
:1046C00013F0010F18D0FDF705FD734B1B78012B7C
:1046D0002ED1724B1B78042B0ED1714B1B78022B01
:1046E0001AD1704B1B6813F0010F15D0FDF7F2FCC7
:1046F000694B1B78012B1BD1684B1B78013BDBB24C
:10470000012B09D8664B1B78012B05D1FDF7E2FC84
:10471000614B1B78012B0BD1604B1B78013BDBB24B
:10472000022B1CD85E4B1B78022B18D1FDF7D2FC54
:10473000594B1B78022B12D1584B1B78023BDBB232
:10474000012B05D8FDF7C6FC534B1B78022B06D175
:10475000544B1B6813F0010F01D0FDF7BBFC53480D
:1047600001F016F901F012F8922819D14F4801F022
:104770000FF94F4901F044F8484B1B78022B0FD139
:10478000474B1B78012B0BD1464B1B6813F0010FD5
:1047900006D10133434A1360FCF748FFFDF778FC6C
:1047A000424801F0F5F800F0F1FF8B2840F0078156
:1047B0003E4801F0EDF83F4C214601F011F820464B
:1047C00000F0FAFF0546204601F072F8034614A8EF
:1047D00039492A4609F02EFC14A809F029FD0246A1
:1047E000364C23685B68204614A99847204606F09B
:1047F000B9FB334B1B78002B40F0E180264B1B7834
:10480000032B40F0DC80264B1B780F2B40F0D78029
:10481000284D284600F0D8FF024614A8294909F07F
:1048200009FC294C20460A21042214AB00F012FC9A
:10483000284600F0CDFF024614A8244909F0FAFBEF
:1048400020460A21052214AB00F004FC284600F0A3
:10485000C3FF024614A81E4909F0ECFB20460A21BA
:10486000062214AB00F0F6FB204600F04DFDA6E05A
:10487000184B1B680593059A174B1A60174818497F
:1048800001F0B4FE4FF4FA6004F088FDFFF724B89D
:1048900015B9FF1F78B8FF1F24B5FF1F18B8FF1FF9
:1048A00068B8FF1F1CB8FF1F48B8FF1F90B8FF1F54
:1048B0007CB8FF1F8CB5FF1FC87D0300ACC5FF1F70
:1048C000049CFF1FE07D030098B5FF1FF47D0300EB
:1048D000087E030044C0FF1F28B7FF1F60B9FF1FF9
:1048E0001C7E0300374B1B680793079A364B1A60F0
:1048F000364C2046364901F02BF93648214601F066
:1049000063F9FEF7D9F9344B10221A7000225A705D
:104910009A70DA701A715A71304B1A78304B9B5C6E
:10492000012B7FF409A8FEF7EFBF264B1B68099304
:10493000099A254B1A60254C2046254901F008F9B3
:104940002448214601F040F9FEF70CF8FEF7B4F9CF
:10495000FFF716B81B4B1B680B930B9A1A4B1A6088
:104960001D4B10221A7001225A709A700022DA70C0
:104970001A715A71174D28461A4901F025F9134C3E
:104980002046194901F0E4F82846214601F01CF9B7
:10499000FFF70FB8154B1B78FFF71FB9002A3FF43C
:1049A000E7A9FFF749BB114B1B78042B7FF472A9D1
:1049B000FFF758B9022B7FF46DA9FFF75FB95BB021
:1049C000BDE8F08F44C0FF1F30B7FF1F28B5FF1FA1
:1049D0008497FF1F90B8FF1F6CB8FF1F24B7FF1FFD
:1049E000E4BBFF1F98B4FF1FB096FF1F18B8FF1F4E
:1049F0002DE9F04186B0DFF8DC81404600210A460F
:104A0000FBF748FD504BC8F80030002488F82640DA
:104A10004E4F384621462246FBF73CFD38464C4B6C
:104A200040F8183B02F014FA384601F09DFD494D5C
:104A30002846042105F12802FBF72CFD464B2B608C
:104A40004FF48033AB61EB612B626B62434E3046B7
:104A5000012106F11802FBF71DFD414B3360304682
:104A600001F0ECFA3F48C0F80080456004724472DF
:104A7000C46005F0DFFF3C48076045600472012216
:104A80004272C46005F0D6FF384805604660047283
:104A90004472C46005F0CEFF354B1A680592059943
:104AA000344A11601A6804920499334A11601A68F2
:104AB00003920399314A11601B680293029A304BAA
:104AC0001A600323009301932E482F492F4A304B3D
:104AD00000F094F82F4B02221A7004225A7005221B
:104AE0009A700622DA7007221A712B4800F018FF1C
:104AF0002A4800F07BFE2A4800F0DEFE29482A49B9
:104B00002A4A00F0C5FF2A4800F0C0FF294C04F1F2
:104B1000A805204600F0C8FF1C34AC42F9D1264855
:104B200000F048FE2548264901F004F8254800F029
:104B3000C5FE25481E49254A01F00CF8244800F01E
:104B40007FFE06B0BDE8F0813081030060B9FF1F31
:104B50004081030048B5FF1F1081030000B7FF1F0D
:104B600020810300DCB5FF1F08B8FF1FE8B6FF1F58
:104B700044C0FF1FD4BBFF1F44B5FF1F30B7FF1F4A
:104B800028B7FF1F34B7FF1FA496FF1FA096FF1F73
:104B90006495FF1F98B5FF1F90B8FF1F78B8FF1FDF
:104BA000D0B5FF1F3CB5FF1F00A21300D5647140B4
:104BB00038B9FF1F60B4FF1F8CB5FF1F28B5FF1F5A
:104BC000009CFF1FD8BBFF1F18B9FF1F9097FF1F46
:104BD0004CB8FF1F20B8FF1F08B50846114604F067
:104BE0004FFB08BD08B50846114604F017FB08BD89
:104BF00008B5084604F036FB08BD00BF2DE9F843B0
:104C000005460F4691469846043000F0D3F92C46ED
:104C1000134B44F8383B05F1B006204600F0CAF9C2
:104C20000C34B442F9D1C5F8BC90C5F8C0809DF8E9
:104C3000203085F8C4309DF8243085F8C530C5F89B
:104C4000B8700A23C5F8C8304FF4FA73C5F8CC30F1
:104C50000023C5F8D030C5F8B4302846BDE8F88345
:104C6000307E03002DE9F84F044690F8C4307BB144
:104C7000002502272168D4F8BC300E682046595D13
:104C80003A46B0470135EDB294F8C430AB42F1D8A2
:104C900094F8C530002B4ED000264FF0010BB246E1
:104CA000B1462268D4F8C03015682046995D5A464E
:104CB000A8472268D4F8C03055682046995D52460E
:104CC000A84794F8C430F3B10BFA06F76FEA070867
:104CD00055462268D4F8BC3092682046595D90470A
:104CE00028B904EB85031A693A431A6105E004EB1D
:104CF00085031A6902EA08021A610135EDB294F8D7
:104D0000C430AB42E5D82268D4F8C030556820469C
:104D100013F809105A46A8472268D4F8C03015681D
:104D2000204613F809105246A8470136F6B294F807
:104D3000C530B342B4D8BDE8F88F00BF10B4C36B20
:104D40008B420AD0024601231846946C8C4208D04C
:104D500001330C320A2BF7D101E0002001E04FF0C3
:104D6000FF305DF8044B704790F84000704700BF7B
:104D7000C0F8CC10704700BFC0F8D010704700BF1B
:104D800010B54B005C1800EB840484F8402001222D
:104D900084F84120D0F8D03013B190F8380098470B
:104DA00010BD00BF30B583B004464B00581804EB6B
:104DB0008000002580F841500B4404EB830393F8F6
:104DC0004030032B2FD8DFE803F0020E242A52B321
:104DD00020460122FFF7D4FF144B1B680093009B71
:104DE000C4F8B0301FE0114B1B6801930198D4F850
:104DF000B030C01AD4F8CC30984204D920460222F0
:104E0000FFF7BEFF0FE072B920460322FFF7B8FF9D
:104E100009E042B920460322FFF7B2FF03E0204633
:104E20000022FFF7ADFF03B030BD00BF44C0FF1F3D
:104E30002DE9F04F85B0044601900346002210464C
:104E40004FF0FF3593F8401021B983F83800DD6347
:104E500083F841000C320C33782AF3D194F8C43033
:104E6000002B6BD04FF00008CDF80880CDF80C80F7
:104E700052E008F1040354F8233023FA05F909F04D
:104E8000010906FB0856D4F8B8309F5D204631462C
:104E9000FFF754FFB0F1000A05DB20465FFA8AF104
:104EA0004A46FFF77FFFBAF1FF3F27D1B9F1000F64
:104EB00024D094F838303BB1019A5B46D9B29C4675
:104EC00092F84400B0B902E0DDF808C003994FEA57
:104ED0004C0303EB0C0204EB820282F83870D663B9
:104EE00013464FF0000283F8402020465A46FFF751
:104EF00059FF03E001330C320A2BDFD10135EDB24B
:104F000094F8C560AE42B4D808F101085FFA88F899
:104F100094F8C430434511D994F8C560002EF3D0FD
:104F200000254FF0010BA4E7E21892F84120002A77
:104F300018BF01200C33782BF6D102E0002318466D
:104F4000F2E705B0BDE8F08F10B582B004460D4B16
:104F50001B680093009AD0F8B430D21AD0F8C83049
:104F60009A420BD9FFF77EFE2046FFF761FF054B03
:104F70001B680193019BC4F8B43000E0002002B02C
:104F800010BD00BF44C0FF1F10B50446FFF7DCFF93
:104F900040B194F841303BB194F84030012B05D03A
:104FA000002010BD002010BD002010BD94F8380076
:104FB00010BD00BF0022027002724272704700BF33
:104FC00010B40D4C2478844284BF0B4C20700B48E5
:104FD000007890423CBF09480270094A12788A4220
:104FE00084BF074A1170074A12789A423CBF054AAB
:104FF00013705DF8044B7047F1BBFF1FF2BBFF1F3E
:10500000F3BBFF1FF4BBFF1F70B503EB83030F4E11
:10501000981905361E440B460D4D05EBC21510F8C8
:10502000014BEC540133DBB2B042F8D1481DD5003E
:1050300001F10A040132D300C0B205F0F801E2B276
:1050400003F0F803FFF7BCFF70BD00BF10A2FF1F05
:105050000CA7FF1F2DE9F04107460C4615465E1EC2
:105060004FF000080EE0384621462A46FFF7CCFFF5
:105070000634E4B2A31D7F2B02DD0135EDB24446B8
:10508000072D03D816F8013F002BECD1BDE8F081C5
:1050900011F0800F1ED13F2A1CD86BB1D30801EB51
:1050A000C3110D4BD24302F00702012000FA02F2B5
:1050B000585C02435A547047D30801EBC311064BA6
:1050C000D24302F00702012000FA02F2585C20EA03
:1050D00002025A54704700BF0CA7FF1F2DE9F04F82
:1050E00087B001908A46049205939DF84010029182
:1050F0009DF8442003929DF848B06AB34FF0000831
:105100004F1EFFB2013714E02B5D334207D00AEB8C
:1051100004010198C9B24A465B46FFF7B9FF013462
:10512000BC42F1D108F101085FFA88F8039B984569
:1051300012D002990029F5D04FEAD80508F00703EC
:1051400001269E400024059A01FB0525DDF81090FC
:10515000C1445FFA89F9D7E7029A5244039B049944
:105160000B445046D2B2DBB2FFF72AFF07B0BDE8CE
:10517000F08F00BF2DE9F04F85B0074601919146B1
:1051800002939DF8383003939DF83C808A46029B39
:105190009A44514516DA0D46039E164493460DE097
:1051A0003846294622464346FFF772FF0134E4B2EF
:1051B000B442F5DB0135EDB2554503DAB145F9DA14
:1051C0005C46EDE7019A029B1A44039B4B4401980D
:1051D0004946D2B2DBB2FFF7F3FE05B0BDE8F08F6F
:1051E00038B504460D468078002104F017F8207881
:1051F00061782A4604F094F838BD00BF10B5044623
:105200000078012104F03CF86078012104F038F8BE
:10521000A078012104F034F8E078012104F030F89E
:105220002079012104F02CF8207943B2002B02DD13
:10523000002103F0F3FFE078002103F0EFFF4FF4CB
:10524000FA7004F0ABF8E078012103F0E7FF2046A4
:10525000A321FFF7C5FF2046A021FFF7C1FF20468D
:10526000C021FFF7BDFF20464021FFF7B9FF2046D0
:105270002C21FFF7B5FF322004F090F820462E21B4
:10528000FFF7AEFF322004F089F820462F21FFF708
:10529000A7FF0A2004F082F820462621FFF7A0FF8E
:1052A000002001467F223F23FFF78AFE10BD00BF8A
:1052B00038B504460D468078012103F0AFFF207811
:1052C00061782A4604F02CF838BD00BF38B5054691
:1052D0000C468121FFF784FF284604F03F01FFF7C9
:1052E0007FFF38BD38B504460D46FFF787FF2046DF
:1052F000AF21FFF775FF2046A421FFF771FF20467D
:105300002946FFF7E3FF38BD2DE9F84F05464FF07A
:10531000080A4FF00009DFF8A8B0DFF8A8809BF872
:10532000003053452FDA224B1B78B3EBC90F31DB2A
:10533000204B19F80310284641F0B001FFF750FF49
:105340001D4B1C781D4B1E78671C284607F00F016B
:10535000FFF746FFC7F30311284641F01001FFF79E
:105360003FFF2846E021FFF73BFFB4420BD84FEA4E
:10537000C91708EB04032846D95DFFF799FF0134EC
:10538000E4B2A642F5D209F101090AF1080AB9F11D
:10539000080FC4D17F22084B1A700023074A1370EC
:1053A0003F21074A1170024A1370BDE8F88F00BF11
:1053B000F4BBFF1F407E0300F1BBFF1FF2BBFF1FCA
:1053C000F3BBFF1F0CA7FF1F08B5064800214FF4D1
:1053D000806208F0E9FB002001467F223F23FFF7AF
:1053E000EFFD08BD0CA7FF1F10B50D4B1A68013269
:1053F0001A601A680B4B1B689A4210D30A4A12783B
:1054000012F0FF0F0BD1084C01222270044A1168E0
:10541000CB1A1360054B1B6898470023237010BDFF
:105420000CBCFF1F14BCFF1FF5BBFF1F18BCFF1FE8
:1054300010B5044605F078FD204610BDFFFFFFFFC4
:1054400008B5014618B901200B49086001E00A4877
:1054500001600A48029901601046194604A3D3E985
:10546000002306F0B5FF07F04DFA054B186008BDA4
:105470000000000080842E4114BCFF1F18BCFF1FD9
:1054800010BCFF1FAFF3008000B583B0009104A3F0
:10549000D3E90023FFF7D4FF03B05DF804FB00BF9E
:1054A000000000E04D62503F08B50023094A136038
:1054B000094A1370094B1B68591E094A914207D8C3
:1054C00003EB43031A0107480749013A05F014FDAD
:1054D00008BD00BF0CBCFF1FF5BBFF1F10BCFF1FAA
:1054E00057555505F8BBFF1FE953000008B50248A2
:1054F00005F01AFD08BD00BFF8BBFF1F08B5054841
:1055000000230370802343730349044A07F0D4FF48
:1055100008BD00BFF8BBFF1F315400006095FF1F9E
:1055200064230360704700BF0160704710B5134BE0
:105530001A6801321A6003680BB19A420BDD104CF5
:1055400023685B6820460F4921229847204605F0D2
:1055500009FD002010BD0C4B1B688B420BDA084C78
:1055600023685B682046094929229847204605F0B0
:10557000F9FC002010BD012010BD00BF1CBCFF1FA6
:10558000ACC5FF1FA47E03000CABFF1F787E030099
:1055900070B50C4616460131FFF7C8FF054618B135
:1055A0002046314603F0E4FB284670BD08B5FFF7FE
:1055B000EFFF08BD10B5094B1B688B420BDA084C96
:1055C00023685B682046074929229847204605F052
:1055D000C9FC002010BD012010BD00BF0CABFF1F97
:1055E000ACC5FF1F787E030010B50C460131FFF7F4
:1055F000E1FF18B1204603F0A5FB10BD002010BD4F
:1056000008B5FFF7F1FF08BD70B506460C46154614
:105610000131FFF78BFF70B130462146FFF7E4FF01
:10562000854206D0304621462A46FFF7BFFF0120BB
:1056300002E0002000E00020003018BF012070BD13
:1056400008B50248FFF76CFF08BD00BF20BCFF1F74
:105650000B2070470B4611B98368187870470129F1
:1056600002D1836858787047C268134413F8020C5B
:10567000704700BF007C0230C0B27047007C0D3024
:10568000C0B270470B4609B9C07D7047012901D1EE
:10569000807D7047022901D1407D7047032901D1E7
:1056A000007D7047042901D1C07E7047052901D1D2
:1056B000807E7047062901D1407E7047072901D1BD
:1056C000007E7047082902D1808B000A70470929A3
:1056D00001D1007F70470A2905D1837F002B0CBFC1
:1056E0000020022070470B2902D183681878704788
:1056F0000C2902D1836858787047C268134413F8A4
:105700000D0C7047007B0C30C0B270470B4609B9D6
:10571000C07C7047012901D1807C7047022901D1EA
:10572000407C7047032901D1007C7047042901D1D6
:10573000C07D7047052901D1807D7047062901D1C0
:10574000407D7047072901D1007D7047082902D1AB
:10575000008B000A7047092901D1007E70470A2991
:1057600001D1807E70470B290FBFC07E82689B18D5
:1057700013F80C0C704700BF10B5847A03685B689F
:105780009847013C201AC0B210BD00BF0079704795
:10579000407A704703790B71437A4B72C379CB71AE
:1057A000837A8B72037A0B7243794B7183798B7195
:1057B000704700BF704700BF036858789B7803EBC1
:1057C000002080B2704700BF0368D878704700BFE0
:1057D00003681879704700BF03685879704700BFA5
:1057E00008B503680B60FFF7D5FF08BD024A0260E9
:1057F0000022026142617047F07E03001030704762
:1058000038B505460C4603680B60FFF7C3FF2B68ED
:1058100019785A78120402EB0162D9780A449B780D
:1058200002EB0323E3602B6819795A79120402EB27
:105830000162D9790A449B7902EB0323236138BDC5
:10584000704700BF00680B30704700BF037A0E2B13
:105850001ABF00680E300020704700BF38B50546FB
:105860000C4603680B60FFF795FF2B6859789A7810
:10587000120402EB016219790A44DB7802EB03237C
:10588000E3602B6859799A79120402EB0162197A64
:105890000A44DB7902EB0323236138BD38B50C469B
:1058A000456803685B6898472844005D38BD00BFC1
:1058B00003681878704700BF704700BF704700BF8B
:1058C00000680130704700BF007A0438C0B27047EA
:1058D000037A042B1ABF006804300020704700BF11
:1058E0000368D878D0F1010038BF0020704700BFAE
:1058F00008B503680B60FFF74DFF08BD0023437236
:105900008372C3710371437183710372704700BF67
:1059100008B5002242730273FFF7F0FF08BD00BF15
:10592000002242730273C273027442728272C271A5
:1059300000F111020260024AC0F88020704700BFE7
:1059400080C5FF1FC0F88010704700BF08B5D0F8B1
:10595000800003689B689847003018BF012008BD8D
:1059600008B5D0F880000368DB689847C0B208BD6E
:1059700008B5D0F8800003685B69984708BD00BF90
:1059800008B5D0F8800003681B68984708BD00BFC1
:10599000704700BFF8B50446437A0BB9837A13B158
:1059A0002046FFF7B5FF04270326022565E02046C1
:1059B000FFF7D6FFA073637BA3B17E2802D1032338
:1059C000A372F8BD7D280DD12046FFF7BFFF30B18F
:1059D0002046FFF7C5FF80F02000A07302E00123FE
:1059E00023734AE0237B2BB1A37B83F02003A373B3
:1059F00000232373637B022B03D9A17BE27B0A4440
:105A0000E273032B15D8DFE803F002080C10A37B28
:105A10007E2B32D1012363732FE0A37B6371657307
:105A20002BE0A37BA371667327E0A37B23716773CD
:105A300023E06E2B02D90223A372F8BDA2790332B0
:105A4000934212D1E37BFF2B06D1A37BE3710123A9
:105A500063720023A37201E00123A372637B043B02
:105A6000237200236373E373F8BDA17B22681344A0
:105A700003F8041C637B013363732046FFF766FF62
:105A8000002894D1F8BD00BF41717047704700BF36
:105A900001604260704700BF006870470160704756
:105AA00040687047416070471022027101224271C4
:105AB000002282600273014A02607047E07E0300A8
:105AC00030B40446102020719DF8140060710398D2
:105AD000A0609DF8100020732546074845F8100B7C
